{
  "_format": "hh-sol-artifact-1",
  "contractName": "FundoSPUPPP",
  "sourceName": "contracts/fundospuppp.sol",
  "abi": [
    {
      "inputs": [],
      "stateMutability": "nonpayable",
      "type": "constructor"
    },
    {
      "anonymous": false,
      "inputs": [
        {
          "indexed": true,
          "internalType": "address",
          "name": "owner",
          "type": "address"
        },
        {
          "indexed": true,
          "internalType": "address",
          "name": "spender",
          "type": "address"
        },
        {
          "indexed": false,
          "internalType": "uint256",
          "name": "value",
          "type": "uint256"
        }
      ],
      "name": "Approval",
      "type": "event"
    },
    {
      "anonymous": false,
      "inputs": [
        {
          "indexed": true,
          "internalType": "address",
          "name": "previousOwner",
          "type": "address"
        },
        {
          "indexed": true,
          "internalType": "address",
          "name": "newOwner",
          "type": "address"
        }
      ],
      "name": "OwnershipTransferred",
      "type": "event"
    },
    {
      "anonymous": false,
      "inputs": [
        {
          "indexed": false,
          "internalType": "address",
          "name": "account",
          "type": "address"
        }
      ],
      "name": "Paused",
      "type": "event"
    },
    {
      "anonymous": false,
      "inputs": [],
      "name": "TokenReceived",
      "type": "event"
    },
    {
      "anonymous": false,
      "inputs": [
        {
          "indexed": true,
          "internalType": "address",
          "name": "from",
          "type": "address"
        },
        {
          "indexed": true,
          "internalType": "address",
          "name": "to",
          "type": "address"
        },
        {
          "indexed": false,
          "internalType": "uint256",
          "name": "value",
          "type": "uint256"
        }
      ],
      "name": "Transfer",
      "type": "event"
    },
    {
      "anonymous": false,
      "inputs": [
        {
          "indexed": false,
          "internalType": "address",
          "name": "account",
          "type": "address"
        }
      ],
      "name": "Unpaused",
      "type": "event"
    },
    {
      "inputs": [],
      "name": "DOMAIN_SEPARATOR",
      "outputs": [
        {
          "internalType": "bytes32",
          "name": "",
          "type": "bytes32"
        }
      ],
      "stateMutability": "view",
      "type": "function"
    },
    {
      "inputs": [
        {
          "internalType": "address",
          "name": "owner",
          "type": "address"
        },
        {
          "internalType": "address",
          "name": "spender",
          "type": "address"
        }
      ],
      "name": "allowance",
      "outputs": [
        {
          "internalType": "uint256",
          "name": "",
          "type": "uint256"
        }
      ],
      "stateMutability": "view",
      "type": "function"
    },
    {
      "inputs": [
        {
          "internalType": "address",
          "name": "spender",
          "type": "address"
        },
        {
          "internalType": "uint256",
          "name": "amount",
          "type": "uint256"
        }
      ],
      "name": "approve",
      "outputs": [
        {
          "internalType": "bool",
          "name": "",
          "type": "bool"
        }
      ],
      "stateMutability": "nonpayable",
      "type": "function"
    },
    {
      "inputs": [
        {
          "internalType": "address",
          "name": "account",
          "type": "address"
        }
      ],
      "name": "balanceOf",
      "outputs": [
        {
          "internalType": "uint256",
          "name": "",
          "type": "uint256"
        }
      ],
      "stateMutability": "view",
      "type": "function"
    },
    {
      "inputs": [
        {
          "internalType": "uint256",
          "name": "amount",
          "type": "uint256"
        }
      ],
      "name": "burn",
      "outputs": [],
      "stateMutability": "nonpayable",
      "type": "function"
    },
    {
      "inputs": [
        {
          "internalType": "address",
          "name": "account",
          "type": "address"
        },
        {
          "internalType": "uint256",
          "name": "amount",
          "type": "uint256"
        }
      ],
      "name": "burnFrom",
      "outputs": [],
      "stateMutability": "nonpayable",
      "type": "function"
    },
    {
      "inputs": [],
      "name": "decimals",
      "outputs": [
        {
          "internalType": "uint8",
          "name": "",
          "type": "uint8"
        }
      ],
      "stateMutability": "view",
      "type": "function"
    },
    {
      "inputs": [
        {
          "internalType": "address",
          "name": "spender",
          "type": "address"
        },
        {
          "internalType": "uint256",
          "name": "subtractedValue",
          "type": "uint256"
        }
      ],
      "name": "decreaseAllowance",
      "outputs": [
        {
          "internalType": "bool",
          "name": "",
          "type": "bool"
        }
      ],
      "stateMutability": "nonpayable",
      "type": "function"
    },
    {
      "inputs": [
        {
          "internalType": "address",
          "name": "spender",
          "type": "address"
        },
        {
          "internalType": "uint256",
          "name": "addedValue",
          "type": "uint256"
        }
      ],
      "name": "increaseAllowance",
      "outputs": [
        {
          "internalType": "bool",
          "name": "",
          "type": "bool"
        }
      ],
      "stateMutability": "nonpayable",
      "type": "function"
    },
    {
      "inputs": [
        {
          "internalType": "address",
          "name": "to",
          "type": "address"
        },
        {
          "internalType": "uint256",
          "name": "amount",
          "type": "uint256"
        }
      ],
      "name": "mint",
      "outputs": [],
      "stateMutability": "nonpayable",
      "type": "function"
    },
    {
      "inputs": [],
      "name": "name",
      "outputs": [
        {
          "internalType": "string",
          "name": "",
          "type": "string"
        }
      ],
      "stateMutability": "view",
      "type": "function"
    },
    {
      "inputs": [
        {
          "internalType": "address",
          "name": "owner",
          "type": "address"
        }
      ],
      "name": "nonces",
      "outputs": [
        {
          "internalType": "uint256",
          "name": "",
          "type": "uint256"
        }
      ],
      "stateMutability": "view",
      "type": "function"
    },
    {
      "inputs": [
        {
          "internalType": "address",
          "name": "",
          "type": "address"
        },
        {
          "internalType": "address",
          "name": "",
          "type": "address"
        },
        {
          "internalType": "uint256",
          "name": "",
          "type": "uint256"
        },
        {
          "internalType": "bytes",
          "name": "",
          "type": "bytes"
        }
      ],
      "name": "onERC721Received",
      "outputs": [
        {
          "internalType": "bytes4",
          "name": "",
          "type": "bytes4"
        }
      ],
      "stateMutability": "pure",
      "type": "function"
    },
    {
      "inputs": [],
      "name": "owner",
      "outputs": [
        {
          "internalType": "address",
          "name": "",
          "type": "address"
        }
      ],
      "stateMutability": "view",
      "type": "function"
    },
    {
      "inputs": [],
      "name": "pause",
      "outputs": [],
      "stateMutability": "nonpayable",
      "type": "function"
    },
    {
      "inputs": [],
      "name": "paused",
      "outputs": [
        {
          "internalType": "bool",
          "name": "",
          "type": "bool"
        }
      ],
      "stateMutability": "view",
      "type": "function"
    },
    {
      "inputs": [
        {
          "internalType": "address",
          "name": "owner",
          "type": "address"
        },
        {
          "internalType": "address",
          "name": "spender",
          "type": "address"
        },
        {
          "internalType": "uint256",
          "name": "value",
          "type": "uint256"
        },
        {
          "internalType": "uint256",
          "name": "deadline",
          "type": "uint256"
        },
        {
          "internalType": "uint8",
          "name": "v",
          "type": "uint8"
        },
        {
          "internalType": "bytes32",
          "name": "r",
          "type": "bytes32"
        },
        {
          "internalType": "bytes32",
          "name": "s",
          "type": "bytes32"
        }
      ],
      "name": "permit",
      "outputs": [],
      "stateMutability": "nonpayable",
      "type": "function"
    },
    {
      "inputs": [],
      "name": "renounceOwnership",
      "outputs": [],
      "stateMutability": "nonpayable",
      "type": "function"
    },
    {
      "inputs": [],
      "name": "symbol",
      "outputs": [
        {
          "internalType": "string",
          "name": "",
          "type": "string"
        }
      ],
      "stateMutability": "view",
      "type": "function"
    },
    {
      "inputs": [],
      "name": "totalSupply",
      "outputs": [
        {
          "internalType": "uint256",
          "name": "",
          "type": "uint256"
        }
      ],
      "stateMutability": "view",
      "type": "function"
    },
    {
      "inputs": [
        {
          "internalType": "address",
          "name": "to",
          "type": "address"
        },
        {
          "internalType": "uint256",
          "name": "amount",
          "type": "uint256"
        }
      ],
      "name": "transfer",
      "outputs": [
        {
          "internalType": "bool",
          "name": "",
          "type": "bool"
        }
      ],
      "stateMutability": "nonpayable",
      "type": "function"
    },
    {
      "inputs": [
        {
          "internalType": "address",
          "name": "from",
          "type": "address"
        },
        {
          "internalType": "address",
          "name": "to",
          "type": "address"
        },
        {
          "internalType": "uint256",
          "name": "amount",
          "type": "uint256"
        }
      ],
      "name": "transferFrom",
      "outputs": [
        {
          "internalType": "bool",
          "name": "",
          "type": "bool"
        }
      ],
      "stateMutability": "nonpayable",
      "type": "function"
    },
    {
      "inputs": [
        {
          "internalType": "address",
          "name": "newOwner",
          "type": "address"
        }
      ],
      "name": "transferOwnership",
      "outputs": [],
      "stateMutability": "nonpayable",
      "type": "function"
    },
    {
      "inputs": [],
      "name": "unpause",
      "outputs": [],
      "stateMutability": "nonpayable",
      "type": "function"
    }
  ],
  "bytecode": "0x6101406040523480156200001257600080fd5b506040518060400160405280600d81526020017f46756e646f2d5350552d50505000000000000000000000000000000000000000815250806040518060400160405280600181526020017f31000000000000000000000000000000000000000000000000000000000000008152506040518060400160405280600d81526020017f46756e646f2d5350552d505050000000000000000000000000000000000000008152506040518060400160405280600581526020017f53505542520000000000000000000000000000000000000000000000000000008152508160039081620000fd91906200058a565b5080600490816200010f91906200058a565b5050506000600560006101000a81548160ff0219169083151502179055506200014d620001416200020660201b60201c565b6200020e60201b60201c565b60008280519060200120905060008280519060200120905060007f8b73c3c69bb8fe3d512ecc4cf759cc79239f7b179b0ffacaa9a75d522b39400f90508260e081815250508161010081815250504660a08181525050620001b6818484620002d460201b60201c565b608081815250503073ffffffffffffffffffffffffffffffffffffffff1660c08173ffffffffffffffffffffffffffffffffffffffff16815250508061012081815250505050505050506200073f565b600033905090565b6000600560019054906101000a900473ffffffffffffffffffffffffffffffffffffffff16905081600560016101000a81548173ffffffffffffffffffffffffffffffffffffffff021916908373ffffffffffffffffffffffffffffffffffffffff1602179055508173ffffffffffffffffffffffffffffffffffffffff168173ffffffffffffffffffffffffffffffffffffffff167f8be0079c531659141344cd1fd0a4f28419497f9722a3daafe3b4186f6b6457e060405160405180910390a35050565b60008383834630604051602001620002f1959493929190620006e2565b6040516020818303038152906040528051906020012090509392505050565b600081519050919050565b7f4e487b7100000000000000000000000000000000000000000000000000000000600052604160045260246000fd5b7f4e487b7100000000000000000000000000000000000000000000000000000000600052602260045260246000fd5b600060028204905060018216806200039257607f821691505b602082108103620003a857620003a76200034a565b5b50919050565b60008190508160005260206000209050919050565b60006020601f8301049050919050565b600082821b905092915050565b600060088302620004127fffffffffffffffffffffffffffffffffffffffffffffffffffffffffffffffff82620003d3565b6200041e8683620003d3565b95508019841693508086168417925050509392505050565b6000819050919050565b6000819050919050565b60006200046b620004656200045f8462000436565b62000440565b62000436565b9050919050565b6000819050919050565b62000487836200044a565b6200049f620004968262000472565b848454620003e0565b825550505050565b600090565b620004b6620004a7565b620004c38184846200047c565b505050565b5b81811015620004eb57620004df600082620004ac565b600181019050620004c9565b5050565b601f8211156200053a576200050481620003ae565b6200050f84620003c3565b810160208510156200051f578190505b620005376200052e85620003c3565b830182620004c8565b50505b505050565b600082821c905092915050565b60006200055f600019846008026200053f565b1980831691505092915050565b60006200057a83836200054c565b9150826002028217905092915050565b620005958262000310565b67ffffffffffffffff811115620005b157620005b06200031b565b5b620005bd825462000379565b620005ca828285620004ef565b600060209050601f831160018114620006025760008415620005ed578287015190505b620005f985826200056c565b86555062000669565b601f1984166200061286620003ae565b60005b828110156200063c5784890151825560018201915060208501945060208101905062000615565b868310156200065c578489015162000658601f8916826200054c565b8355505b6001600288020188555050505b505050505050565b6000819050919050565b620006868162000671565b82525050565b620006978162000436565b82525050565b600073ffffffffffffffffffffffffffffffffffffffff82169050919050565b6000620006ca826200069d565b9050919050565b620006dc81620006bd565b82525050565b600060a082019050620006f960008301886200067b565b6200070860208301876200067b565b6200071760408301866200067b565b6200072660608301856200068c565b620007356080830184620006d1565b9695505050505050565b60805160a05160c05160e0516101005161012051612c116200078f60003960006110480152600061108a0152600061106901526000610f9e01526000610ff40152600061101d0152612c116000f3fe608060405234801561001057600080fd5b50600436106101585760003560e01c806370a08231116100c357806395d89b411161007c57806395d89b41146103a3578063a457c2d7146103c1578063a9059cbb146103f1578063d505accf14610421578063dd62ed3e1461043d578063f2fde38b1461046d57610158565b806370a08231146102f5578063715018a61461032557806379cc67901461032f5780637ecebe001461034b5780638456cb591461037b5780638da5cb5b1461038557610158565b80633644e515116101155780633644e5151461024757806339509351146102655780633f4ba83a1461029557806340c10f191461029f57806342966c68146102bb5780635c975abb146102d757610158565b806306fdde031461015d578063095ea7b31461017b578063150b7a02146101ab57806318160ddd146101db57806323b872dd146101f9578063313ce56714610229575b600080fd5b610165610489565b6040516101729190611aa2565b60405180910390f35b61019560048036038101906101909190611b62565b61051b565b6040516101a29190611bbd565b60405180910390f35b6101c560048036038101906101c09190611c3d565b61053e565b6040516101d29190611d00565b60405180910390f35b6101e361056c565b6040516101f09190611d2a565b60405180910390f35b610213600480360381019061020e9190611d45565b610576565b6040516102209190611bbd565b60405180910390f35b6102316105a5565b60405161023e9190611db4565b60405180910390f35b61024f6105ae565b60405161025c9190611de8565b60405180910390f35b61027f600480360381019061027a9190611b62565b6105bd565b60405161028c9190611bbd565b60405180910390f35b61029d6105f4565b005b6102b960048036038101906102b49190611b62565b610606565b005b6102d560048036038101906102d09190611e03565b61061c565b005b6102df610630565b6040516102ec9190611bbd565b60405180910390f35b61030f600480360381019061030a9190611e30565b610647565b60405161031c9190611d2a565b60405180910390f35b61032d61068f565b005b61034960048036038101906103449190611b62565b6106a3565b005b61036560048036038101906103609190611e30565b6106c3565b6040516103729190611d2a565b60405180910390f35b610383610713565b005b61038d610725565b60405161039a9190611e6c565b60405180910390f35b6103ab61074f565b6040516103b89190611aa2565b60405180910390f35b6103db60048036038101906103d69190611b62565b6107e1565b6040516103e89190611bbd565b60405180910390f35b61040b60048036038101906104069190611b62565b610858565b6040516104189190611bbd565b60405180910390f35b61043b60048036038101906104369190611edf565b61087b565b005b61045760048036038101906104529190611f81565b6109bd565b6040516104649190611d2a565b60405180910390f35b61048760048036038101906104829190611e30565b610a44565b005b60606003805461049890611ff0565b80601f01602080910402602001604051908101604052809291908181526020018280546104c490611ff0565b80156105115780601f106104e657610100808354040283529160200191610511565b820191906000526020600020905b8154815290600101906020018083116104f457829003601f168201915b5050505050905090565b600080610526610ac7565b9050610533818585610acf565b600191505092915050565b60007f150b7a023d4804d13e8c85fb27262cb750cf6ba9f9dd3bb30d90f482ceeb4b1f905095945050505050565b6000600254905090565b600080610581610ac7565b905061058e858285610c98565b610599858585610d24565b60019150509392505050565b60006012905090565b60006105b8610f9a565b905090565b6000806105c8610ac7565b90506105e98185856105da85896109bd565b6105e49190612050565b610acf565b600191505092915050565b6105fc6110b4565b610604611132565b565b61060e6110b4565b6106188282611195565b5050565b61062d610627610ac7565b826112eb565b50565b6000600560009054906101000a900460ff16905090565b60008060008373ffffffffffffffffffffffffffffffffffffffff1673ffffffffffffffffffffffffffffffffffffffff168152602001908152602001600020549050919050565b6106976110b4565b6106a160006114b8565b565b6106b5826106af610ac7565b83610c98565b6106bf82826112eb565b5050565b600061070c600660008473ffffffffffffffffffffffffffffffffffffffff1673ffffffffffffffffffffffffffffffffffffffff16815260200190815260200160002061157e565b9050919050565b61071b6110b4565b61072361158c565b565b6000600560019054906101000a900473ffffffffffffffffffffffffffffffffffffffff16905090565b60606004805461075e90611ff0565b80601f016020809104026020016040519081016040528092919081815260200182805461078a90611ff0565b80156107d75780601f106107ac576101008083540402835291602001916107d7565b820191906000526020600020905b8154815290600101906020018083116107ba57829003601f168201915b5050505050905090565b6000806107ec610ac7565b905060006107fa82866109bd565b90508381101561083f576040517f08c379a0000000000000000000000000000000000000000000000000000000008152600401610836906120f6565b60405180910390fd5b61084c8286868403610acf565b60019250505092915050565b600080610863610ac7565b9050610870818585610d24565b600191505092915050565b834211156108be576040517f08c379a00000000000000000000000000000000000000000000000000000000081526004016108b590612162565b60405180910390fd5b60007f6e71edae12b1b97f4d1f60370fef10105fa2faae0126114a169c64845d6126c98888886108ed8c6115ef565b8960405160200161090396959493929190612182565b60405160208183030381529060405280519060200120905060006109268261164d565b9050600061093682878787611667565b90508973ffffffffffffffffffffffffffffffffffffffff168173ffffffffffffffffffffffffffffffffffffffff16146109a6576040517f08c379a000000000000000000000000000000000000000000000000000000000815260040161099d9061222f565b60405180910390fd5b6109b18a8a8a610acf565b50505050505050505050565b6000600160008473ffffffffffffffffffffffffffffffffffffffff1673ffffffffffffffffffffffffffffffffffffffff16815260200190815260200160002060008373ffffffffffffffffffffffffffffffffffffffff1673ffffffffffffffffffffffffffffffffffffffff16815260200190815260200160002054905092915050565b610a4c6110b4565b600073ffffffffffffffffffffffffffffffffffffffff168173ffffffffffffffffffffffffffffffffffffffff1603610abb576040517f08c379a0000000000000000000000000000000000000000000000000000000008152600401610ab2906122c1565b60405180910390fd5b610ac4816114b8565b50565b600033905090565b600073ffffffffffffffffffffffffffffffffffffffff168373ffffffffffffffffffffffffffffffffffffffff1603610b3e576040517f08c379a0000000000000000000000000000000000000000000000000000000008152600401610b3590612353565b60405180910390fd5b600073ffffffffffffffffffffffffffffffffffffffff168273ffffffffffffffffffffffffffffffffffffffff1603610bad576040517f08c379a0000000000000000000000000000000000000000000000000000000008152600401610ba4906123e5565b60405180910390fd5b80600160008573ffffffffffffffffffffffffffffffffffffffff1673ffffffffffffffffffffffffffffffffffffffff16815260200190815260200160002060008473ffffffffffffffffffffffffffffffffffffffff1673ffffffffffffffffffffffffffffffffffffffff168152602001908152602001600020819055508173ffffffffffffffffffffffffffffffffffffffff168373ffffffffffffffffffffffffffffffffffffffff167f8c5be1e5ebec7d5bd14f71427d1e84f3dd0314c0f7b2291e5b200ac8c7c3b92583604051610c8b9190611d2a565b60405180910390a3505050565b6000610ca484846109bd565b90507fffffffffffffffffffffffffffffffffffffffffffffffffffffffffffffffff8114610d1e5781811015610d10576040517f08c379a0000000000000000000000000000000000000000000000000000000008152600401610d0790612451565b60405180910390fd5b610d1d8484848403610acf565b5b50505050565b600073ffffffffffffffffffffffffffffffffffffffff168373ffffffffffffffffffffffffffffffffffffffff1603610d93576040517f08c379a0000000000000000000000000000000000000000000000000000000008152600401610d8a906124e3565b60405180910390fd5b600073ffffffffffffffffffffffffffffffffffffffff168273ffffffffffffffffffffffffffffffffffffffff1603610e02576040517f08c379a0000000000000000000000000000000000000000000000000000000008152600401610df990612575565b60405180910390fd5b610e0d838383611692565b60008060008573ffffffffffffffffffffffffffffffffffffffff1673ffffffffffffffffffffffffffffffffffffffff16815260200190815260200160002054905081811015610e93576040517f08c379a0000000000000000000000000000000000000000000000000000000008152600401610e8a90612607565b60405180910390fd5b8181036000808673ffffffffffffffffffffffffffffffffffffffff1673ffffffffffffffffffffffffffffffffffffffff16815260200190815260200160002081905550816000808573ffffffffffffffffffffffffffffffffffffffff1673ffffffffffffffffffffffffffffffffffffffff168152602001908152602001600020600082825401925050819055508273ffffffffffffffffffffffffffffffffffffffff168473ffffffffffffffffffffffffffffffffffffffff167fddf252ad1be2c89b69c2b068fc378daa952ba7f163c4a11628f55a4df523b3ef84604051610f819190611d2a565b60405180910390a3610f948484846116aa565b50505050565b60007f000000000000000000000000000000000000000000000000000000000000000073ffffffffffffffffffffffffffffffffffffffff163073ffffffffffffffffffffffffffffffffffffffff1614801561101657507f000000000000000000000000000000000000000000000000000000000000000046145b15611043577f000000000000000000000000000000000000000000000000000000000000000090506110b1565b6110ae7f00000000000000000000000000000000000000000000000000000000000000007f00000000000000000000000000000000000000000000000000000000000000007f00000000000000000000000000000000000000000000000000000000000000006116af565b90505b90565b6110bc610ac7565b73ffffffffffffffffffffffffffffffffffffffff166110da610725565b73ffffffffffffffffffffffffffffffffffffffff1614611130576040517f08c379a000000000000000000000000000000000000000000000000000000000815260040161112790612673565b60405180910390fd5b565b61113a6116e9565b6000600560006101000a81548160ff0219169083151502179055507f5db9ee0a495bf2e6ff9c91a7834c1ba4fdd244a5e8aa4e537bd38aeae4b073aa61117e610ac7565b60405161118b9190611e6c565b60405180910390a1565b600073ffffffffffffffffffffffffffffffffffffffff168273ffffffffffffffffffffffffffffffffffffffff1603611204576040517f08c379a00000000000000000000000000000000000000000000000000000000081526004016111fb906126df565b60405180910390fd5b61121060008383611692565b80600260008282546112229190612050565b92505081905550806000808473ffffffffffffffffffffffffffffffffffffffff1673ffffffffffffffffffffffffffffffffffffffff168152602001908152602001600020600082825401925050819055508173ffffffffffffffffffffffffffffffffffffffff16600073ffffffffffffffffffffffffffffffffffffffff167fddf252ad1be2c89b69c2b068fc378daa952ba7f163c4a11628f55a4df523b3ef836040516112d39190611d2a565b60405180910390a36112e7600083836116aa565b5050565b600073ffffffffffffffffffffffffffffffffffffffff168273ffffffffffffffffffffffffffffffffffffffff160361135a576040517f08c379a000000000000000000000000000000000000000000000000000000000815260040161135190612771565b60405180910390fd5b61136682600083611692565b60008060008473ffffffffffffffffffffffffffffffffffffffff1673ffffffffffffffffffffffffffffffffffffffff168152602001908152602001600020549050818110156113ec576040517f08c379a00000000000000000000000000000000000000000000000000000000081526004016113e390612803565b60405180910390fd5b8181036000808573ffffffffffffffffffffffffffffffffffffffff1673ffffffffffffffffffffffffffffffffffffffff1681526020019081526020016000208190555081600260008282540392505081905550600073ffffffffffffffffffffffffffffffffffffffff168373ffffffffffffffffffffffffffffffffffffffff167fddf252ad1be2c89b69c2b068fc378daa952ba7f163c4a11628f55a4df523b3ef8460405161149f9190611d2a565b60405180910390a36114b3836000846116aa565b505050565b6000600560019054906101000a900473ffffffffffffffffffffffffffffffffffffffff16905081600560016101000a81548173ffffffffffffffffffffffffffffffffffffffff021916908373ffffffffffffffffffffffffffffffffffffffff1602179055508173ffffffffffffffffffffffffffffffffffffffff168173ffffffffffffffffffffffffffffffffffffffff167f8be0079c531659141344cd1fd0a4f28419497f9722a3daafe3b4186f6b6457e060405160405180910390a35050565b600081600001549050919050565b611594611732565b6001600560006101000a81548160ff0219169083151502179055507f62e78cea01bee320cd4e420270b5ea74000d11b0c9f74754ebdbfc544b05a2586115d8610ac7565b6040516115e59190611e6c565b60405180910390a1565b600080600660008473ffffffffffffffffffffffffffffffffffffffff1673ffffffffffffffffffffffffffffffffffffffff168152602001908152602001600020905061163c8161157e565b91506116478161177c565b50919050565b600061166061165a610f9a565b83611792565b9050919050565b6000806000611678878787876117c5565b91509150611685816118a7565b8192505050949350505050565b61169a611732565b6116a5838383611a0d565b505050565b505050565b600083838346306040516020016116ca959493929190612823565b6040516020818303038152906040528051906020012090509392505050565b6116f1610630565b611730576040517f08c379a0000000000000000000000000000000000000000000000000000000008152600401611727906128c2565b60405180910390fd5b565b61173a610630565b1561177a576040517f08c379a00000000000000000000000000000000000000000000000000000000081526004016117719061292e565b60405180910390fd5b565b6001816000016000828254019250508190555050565b600082826040516020016117a79291906129c6565b60405160208183030381529060405280519060200120905092915050565b6000807f7fffffffffffffffffffffffffffffff5d576e7357a4501ddfe92f46681b20a08360001c111561180057600060039150915061189e565b60006001878787876040516000815260200160405260405161182594939291906129fd565b6020604051602081039080840390855afa158015611847573d6000803e3d6000fd5b505050602060405103519050600073ffffffffffffffffffffffffffffffffffffffff168173ffffffffffffffffffffffffffffffffffffffff16036118955760006001925092505061189e565b80600092509250505b94509492505050565b600060048111156118bb576118ba612a42565b5b8160048111156118ce576118cd612a42565b5b0315611a0a57600160048111156118e8576118e7612a42565b5b8160048111156118fb576118fa612a42565b5b0361193b576040517f08c379a000000000000000000000000000000000000000000000000000000000815260040161193290612abd565b60405180910390fd5b6002600481111561194f5761194e612a42565b5b81600481111561196257611961612a42565b5b036119a2576040517f08c379a000000000000000000000000000000000000000000000000000000000815260040161199990612b29565b60405180910390fd5b600360048111156119b6576119b5612a42565b5b8160048111156119c9576119c8612a42565b5b03611a09576040517f08c379a0000000000000000000000000000000000000000000000000000000008152600401611a0090612bbb565b60405180910390fd5b5b50565b505050565b600081519050919050565b600082825260208201905092915050565b60005b83811015611a4c578082015181840152602081019050611a31565b60008484015250505050565b6000601f19601f8301169050919050565b6000611a7482611a12565b611a7e8185611a1d565b9350611a8e818560208601611a2e565b611a9781611a58565b840191505092915050565b60006020820190508181036000830152611abc8184611a69565b905092915050565b600080fd5b600080fd5b600073ffffffffffffffffffffffffffffffffffffffff82169050919050565b6000611af982611ace565b9050919050565b611b0981611aee565b8114611b1457600080fd5b50565b600081359050611b2681611b00565b92915050565b6000819050919050565b611b3f81611b2c565b8114611b4a57600080fd5b50565b600081359050611b5c81611b36565b92915050565b60008060408385031215611b7957611b78611ac4565b5b6000611b8785828601611b17565b9250506020611b9885828601611b4d565b9150509250929050565b60008115159050919050565b611bb781611ba2565b82525050565b6000602082019050611bd26000830184611bae565b92915050565b600080fd5b600080fd5b600080fd5b60008083601f840112611bfd57611bfc611bd8565b5b8235905067ffffffffffffffff811115611c1a57611c19611bdd565b5b602083019150836001820283011115611c3657611c35611be2565b5b9250929050565b600080600080600060808688031215611c5957611c58611ac4565b5b6000611c6788828901611b17565b9550506020611c7888828901611b17565b9450506040611c8988828901611b4d565b935050606086013567ffffffffffffffff811115611caa57611ca9611ac9565b5b611cb688828901611be7565b92509250509295509295909350565b60007fffffffff0000000000000000000000000000000000000000000000000000000082169050919050565b611cfa81611cc5565b82525050565b6000602082019050611d156000830184611cf1565b92915050565b611d2481611b2c565b82525050565b6000602082019050611d3f6000830184611d1b565b92915050565b600080600060608486031215611d5e57611d5d611ac4565b5b6000611d6c86828701611b17565b9350506020611d7d86828701611b17565b9250506040611d8e86828701611b4d565b9150509250925092565b600060ff82169050919050565b611dae81611d98565b82525050565b6000602082019050611dc96000830184611da5565b92915050565b6000819050919050565b611de281611dcf565b82525050565b6000602082019050611dfd6000830184611dd9565b92915050565b600060208284031215611e1957611e18611ac4565b5b6000611e2784828501611b4d565b91505092915050565b600060208284031215611e4657611e45611ac4565b5b6000611e5484828501611b17565b91505092915050565b611e6681611aee565b82525050565b6000602082019050611e816000830184611e5d565b92915050565b611e9081611d98565b8114611e9b57600080fd5b50565b600081359050611ead81611e87565b92915050565b611ebc81611dcf565b8114611ec757600080fd5b50565b600081359050611ed981611eb3565b92915050565b600080600080600080600060e0888a031215611efe57611efd611ac4565b5b6000611f0c8a828b01611b17565b9750506020611f1d8a828b01611b17565b9650506040611f2e8a828b01611b4d565b9550506060611f3f8a828b01611b4d565b9450506080611f508a828b01611e9e565b93505060a0611f618a828b01611eca565b92505060c0611f728a828b01611eca565b91505092959891949750929550565b60008060408385031215611f9857611f97611ac4565b5b6000611fa685828601611b17565b9250506020611fb785828601611b17565b9150509250929050565b7f4e487b7100000000000000000000000000000000000000000000000000000000600052602260045260246000fd5b6000600282049050600182168061200857607f821691505b60208210810361201b5761201a611fc1565b5b50919050565b7f4e487b7100000000000000000000000000000000000000000000000000000000600052601160045260246000fd5b600061205b82611b2c565b915061206683611b2c565b925082820190508082111561207e5761207d612021565b5b92915050565b7f45524332303a2064656372656173656420616c6c6f77616e63652062656c6f7760008201527f207a65726f000000000000000000000000000000000000000000000000000000602082015250565b60006120e0602583611a1d565b91506120eb82612084565b604082019050919050565b6000602082019050818103600083015261210f816120d3565b9050919050565b7f45524332305065726d69743a206578706972656420646561646c696e65000000600082015250565b600061214c601d83611a1d565b915061215782612116565b602082019050919050565b6000602082019050818103600083015261217b8161213f565b9050919050565b600060c0820190506121976000830189611dd9565b6121a46020830188611e5d565b6121b16040830187611e5d565b6121be6060830186611d1b565b6121cb6080830185611d1b565b6121d860a0830184611d1b565b979650505050505050565b7f45524332305065726d69743a20696e76616c6964207369676e61747572650000600082015250565b6000612219601e83611a1d565b9150612224826121e3565b602082019050919050565b600060208201905081810360008301526122488161220c565b9050919050565b7f4f776e61626c653a206e6577206f776e657220697320746865207a65726f206160008201527f6464726573730000000000000000000000000000000000000000000000000000602082015250565b60006122ab602683611a1d565b91506122b68261224f565b604082019050919050565b600060208201905081810360008301526122da8161229e565b9050919050565b7f45524332303a20617070726f76652066726f6d20746865207a65726f2061646460008201527f7265737300000000000000000000000000000000000000000000000000000000602082015250565b600061233d602483611a1d565b9150612348826122e1565b604082019050919050565b6000602082019050818103600083015261236c81612330565b9050919050565b7f45524332303a20617070726f766520746f20746865207a65726f20616464726560008201527f7373000000000000000000000000000000000000000000000000000000000000602082015250565b60006123cf602283611a1d565b91506123da82612373565b604082019050919050565b600060208201905081810360008301526123fe816123c2565b9050919050565b7f45524332303a20696e73756666696369656e7420616c6c6f77616e6365000000600082015250565b600061243b601d83611a1d565b915061244682612405565b602082019050919050565b6000602082019050818103600083015261246a8161242e565b9050919050565b7f45524332303a207472616e736665722066726f6d20746865207a65726f20616460008201527f6472657373000000000000000000000000000000000000000000000000000000602082015250565b60006124cd602583611a1d565b91506124d882612471565b604082019050919050565b600060208201905081810360008301526124fc816124c0565b9050919050565b7f45524332303a207472616e7366657220746f20746865207a65726f206164647260008201527f6573730000000000000000000000000000000000000000000000000000000000602082015250565b600061255f602383611a1d565b915061256a82612503565b604082019050919050565b6000602082019050818103600083015261258e81612552565b9050919050565b7f45524332303a207472616e7366657220616d6f756e742065786365656473206260008201527f616c616e63650000000000000000000000000000000000000000000000000000602082015250565b60006125f1602683611a1d565b91506125fc82612595565b604082019050919050565b60006020820190508181036000830152612620816125e4565b9050919050565b7f4f776e61626c653a2063616c6c6572206973206e6f7420746865206f776e6572600082015250565b600061265d602083611a1d565b915061266882612627565b602082019050919050565b6000602082019050818103600083015261268c81612650565b9050919050565b7f45524332303a206d696e7420746f20746865207a65726f206164647265737300600082015250565b60006126c9601f83611a1d565b91506126d482612693565b602082019050919050565b600060208201905081810360008301526126f8816126bc565b9050919050565b7f45524332303a206275726e2066726f6d20746865207a65726f2061646472657360008201527f7300000000000000000000000000000000000000000000000000000000000000602082015250565b600061275b602183611a1d565b9150612766826126ff565b604082019050919050565b6000602082019050818103600083015261278a8161274e565b9050919050565b7f45524332303a206275726e20616d6f756e7420657863656564732062616c616e60008201527f6365000000000000000000000000000000000000000000000000000000000000602082015250565b60006127ed602283611a1d565b91506127f882612791565b604082019050919050565b6000602082019050818103600083015261281c816127e0565b9050919050565b600060a0820190506128386000830188611dd9565b6128456020830187611dd9565b6128526040830186611dd9565b61285f6060830185611d1b565b61286c6080830184611e5d565b9695505050505050565b7f5061757361626c653a206e6f7420706175736564000000000000000000000000600082015250565b60006128ac601483611a1d565b91506128b782612876565b602082019050919050565b600060208201905081810360008301526128db8161289f565b9050919050565b7f5061757361626c653a2070617573656400000000000000000000000000000000600082015250565b6000612918601083611a1d565b9150612923826128e2565b602082019050919050565b600060208201905081810360008301526129478161290b565b9050919050565b600081905092915050565b7f1901000000000000000000000000000000000000000000000000000000000000600082015250565b600061298f60028361294e565b915061299a82612959565b600282019050919050565b6000819050919050565b6129c06129bb82611dcf565b6129a5565b82525050565b60006129d182612982565b91506129dd82856129af565b6020820191506129ed82846129af565b6020820191508190509392505050565b6000608082019050612a126000830187611dd9565b612a1f6020830186611da5565b612a2c6040830185611dd9565b612a396060830184611dd9565b95945050505050565b7f4e487b7100000000000000000000000000000000000000000000000000000000600052602160045260246000fd5b7f45434453413a20696e76616c6964207369676e61747572650000000000000000600082015250565b6000612aa7601883611a1d565b9150612ab282612a71565b602082019050919050565b60006020820190508181036000830152612ad681612a9a565b9050919050565b7f45434453413a20696e76616c6964207369676e6174757265206c656e67746800600082015250565b6000612b13601f83611a1d565b9150612b1e82612add565b602082019050919050565b60006020820190508181036000830152612b4281612b06565b9050919050565b7f45434453413a20696e76616c6964207369676e6174757265202773272076616c60008201527f7565000000000000000000000000000000000000000000000000000000000000602082015250565b6000612ba5602283611a1d565b9150612bb082612b49565b604082019050919050565b60006020820190508181036000830152612bd481612b98565b905091905056fea2646970667358221220818a5717571359e0cd9baeed7ba1286f48e151992b376421d9f7ccc093158dc964736f6c63430008110033",
  "linkReferences": {},
  "deployedLinkReferences": {}
}