{
  "_format": "hh-sol-artifact-1",
  "contractName": "ImoveisRFB",
  "sourceName": "contracts/imovelrfb.sol",
  "abi": [
    {
      "inputs": [],
      "stateMutability": "nonpayable",
      "type": "constructor"
    },
    {
      "anonymous": false,
      "inputs": [
        {
          "indexed": true,
          "internalType": "address",
          "name": "owner",
          "type": "address"
        },
        {
          "indexed": true,
          "internalType": "address",
          "name": "approved",
          "type": "address"
        },
        {
          "indexed": true,
          "internalType": "uint256",
          "name": "tokenId",
          "type": "uint256"
        }
      ],
      "name": "Approval",
      "type": "event"
    },
    {
      "anonymous": false,
      "inputs": [
        {
          "indexed": true,
          "internalType": "address",
          "name": "owner",
          "type": "address"
        },
        {
          "indexed": true,
          "internalType": "address",
          "name": "operator",
          "type": "address"
        },
        {
          "indexed": false,
          "internalType": "bool",
          "name": "approved",
          "type": "bool"
        }
      ],
      "name": "ApprovalForAll",
      "type": "event"
    },
    {
      "anonymous": false,
      "inputs": [
        {
          "indexed": true,
          "internalType": "address",
          "name": "previousOwner",
          "type": "address"
        },
        {
          "indexed": true,
          "internalType": "address",
          "name": "newOwner",
          "type": "address"
        }
      ],
      "name": "OwnershipTransferred",
      "type": "event"
    },
    {
      "anonymous": false,
      "inputs": [
        {
          "indexed": true,
          "internalType": "address",
          "name": "from",
          "type": "address"
        },
        {
          "indexed": true,
          "internalType": "address",
          "name": "to",
          "type": "address"
        },
        {
          "indexed": true,
          "internalType": "uint256",
          "name": "tokenId",
          "type": "uint256"
        }
      ],
      "name": "Transfer",
      "type": "event"
    },
    {
      "inputs": [],
      "name": "_tokenIdCounter",
      "outputs": [
        {
          "internalType": "uint256",
          "name": "_value",
          "type": "uint256"
        }
      ],
      "stateMutability": "view",
      "type": "function"
    },
    {
      "inputs": [
        {
          "internalType": "address",
          "name": "to",
          "type": "address"
        },
        {
          "internalType": "uint256",
          "name": "tokenId",
          "type": "uint256"
        }
      ],
      "name": "approve",
      "outputs": [],
      "stateMutability": "nonpayable",
      "type": "function"
    },
    {
      "inputs": [
        {
          "internalType": "address",
          "name": "owner",
          "type": "address"
        }
      ],
      "name": "balanceOf",
      "outputs": [
        {
          "internalType": "uint256",
          "name": "",
          "type": "uint256"
        }
      ],
      "stateMutability": "view",
      "type": "function"
    },
    {
      "inputs": [
        {
          "internalType": "uint256",
          "name": "tokenId",
          "type": "uint256"
        }
      ],
      "name": "burn",
      "outputs": [],
      "stateMutability": "nonpayable",
      "type": "function"
    },
    {
      "inputs": [
        {
          "internalType": "uint256",
          "name": "tokenId",
          "type": "uint256"
        }
      ],
      "name": "getApproved",
      "outputs": [
        {
          "internalType": "address",
          "name": "",
          "type": "address"
        }
      ],
      "stateMutability": "view",
      "type": "function"
    },
    {
      "inputs": [
        {
          "internalType": "address",
          "name": "owner",
          "type": "address"
        },
        {
          "internalType": "address",
          "name": "operator",
          "type": "address"
        }
      ],
      "name": "isApprovedForAll",
      "outputs": [
        {
          "internalType": "bool",
          "name": "",
          "type": "bool"
        }
      ],
      "stateMutability": "view",
      "type": "function"
    },
    {
      "inputs": [],
      "name": "name",
      "outputs": [
        {
          "internalType": "string",
          "name": "",
          "type": "string"
        }
      ],
      "stateMutability": "view",
      "type": "function"
    },
    {
      "inputs": [],
      "name": "owner",
      "outputs": [
        {
          "internalType": "address",
          "name": "",
          "type": "address"
        }
      ],
      "stateMutability": "view",
      "type": "function"
    },
    {
      "inputs": [
        {
          "internalType": "uint256",
          "name": "tokenId",
          "type": "uint256"
        }
      ],
      "name": "ownerOf",
      "outputs": [
        {
          "internalType": "address",
          "name": "",
          "type": "address"
        }
      ],
      "stateMutability": "view",
      "type": "function"
    },
    {
      "inputs": [],
      "name": "renounceOwnership",
      "outputs": [],
      "stateMutability": "nonpayable",
      "type": "function"
    },
    {
      "inputs": [
        {
          "internalType": "address",
          "name": "to",
          "type": "address"
        },
        {
          "internalType": "string",
          "name": "uri",
          "type": "string"
        }
      ],
      "name": "safeMint",
      "outputs": [],
      "stateMutability": "nonpayable",
      "type": "function"
    },
    {
      "inputs": [
        {
          "internalType": "address",
          "name": "from",
          "type": "address"
        },
        {
          "internalType": "address",
          "name": "to",
          "type": "address"
        },
        {
          "internalType": "uint256",
          "name": "tokenId",
          "type": "uint256"
        }
      ],
      "name": "safeTransferFrom",
      "outputs": [],
      "stateMutability": "nonpayable",
      "type": "function"
    },
    {
      "inputs": [
        {
          "internalType": "address",
          "name": "from",
          "type": "address"
        },
        {
          "internalType": "address",
          "name": "to",
          "type": "address"
        },
        {
          "internalType": "uint256",
          "name": "tokenId",
          "type": "uint256"
        },
        {
          "internalType": "bytes",
          "name": "data",
          "type": "bytes"
        }
      ],
      "name": "safeTransferFrom",
      "outputs": [],
      "stateMutability": "nonpayable",
      "type": "function"
    },
    {
      "inputs": [
        {
          "internalType": "address",
          "name": "operator",
          "type": "address"
        },
        {
          "internalType": "bool",
          "name": "approved",
          "type": "bool"
        }
      ],
      "name": "setApprovalForAll",
      "outputs": [],
      "stateMutability": "nonpayable",
      "type": "function"
    },
    {
      "inputs": [
        {
          "internalType": "bytes4",
          "name": "interfaceId",
          "type": "bytes4"
        }
      ],
      "name": "supportsInterface",
      "outputs": [
        {
          "internalType": "bool",
          "name": "",
          "type": "bool"
        }
      ],
      "stateMutability": "view",
      "type": "function"
    },
    {
      "inputs": [],
      "name": "symbol",
      "outputs": [
        {
          "internalType": "string",
          "name": "",
          "type": "string"
        }
      ],
      "stateMutability": "view",
      "type": "function"
    },
    {
      "inputs": [
        {
          "internalType": "uint256",
          "name": "index",
          "type": "uint256"
        }
      ],
      "name": "tokenByIndex",
      "outputs": [
        {
          "internalType": "uint256",
          "name": "",
          "type": "uint256"
        }
      ],
      "stateMutability": "view",
      "type": "function"
    },
    {
      "inputs": [
        {
          "internalType": "address",
          "name": "owner",
          "type": "address"
        },
        {
          "internalType": "uint256",
          "name": "index",
          "type": "uint256"
        }
      ],
      "name": "tokenOfOwnerByIndex",
      "outputs": [
        {
          "internalType": "uint256",
          "name": "",
          "type": "uint256"
        }
      ],
      "stateMutability": "view",
      "type": "function"
    },
    {
      "inputs": [
        {
          "internalType": "uint256",
          "name": "tokenId",
          "type": "uint256"
        }
      ],
      "name": "tokenURI",
      "outputs": [
        {
          "internalType": "string",
          "name": "",
          "type": "string"
        }
      ],
      "stateMutability": "view",
      "type": "function"
    },
    {
      "inputs": [],
      "name": "totalSupply",
      "outputs": [
        {
          "internalType": "uint256",
          "name": "",
          "type": "uint256"
        }
      ],
      "stateMutability": "view",
      "type": "function"
    },
    {
      "inputs": [
        {
          "internalType": "address",
          "name": "from",
          "type": "address"
        },
        {
          "internalType": "address",
          "name": "to",
          "type": "address"
        },
        {
          "internalType": "uint256",
          "name": "tokenId",
          "type": "uint256"
        }
      ],
      "name": "transferFrom",
      "outputs": [],
      "stateMutability": "nonpayable",
      "type": "function"
    },
    {
      "inputs": [
        {
          "internalType": "address",
          "name": "newOwner",
          "type": "address"
        }
      ],
      "name": "transferOwnership",
      "outputs": [],
      "stateMutability": "nonpayable",
      "type": "function"
    }
  ],
  "bytecode": "0x60806040523480156200001157600080fd5b506040518060400160405280600a81526020017f496d6f76656973524642000000000000000000000000000000000000000000008152506040518060400160405280600481526020017f495246420000000000000000000000000000000000000000000000000000000081525081600090816200008f919062000412565b508060019081620000a1919062000412565b505050620000c4620000b8620000ca60201b60201c565b620000d260201b60201c565b620004f9565b600033905090565b6000600b60009054906101000a900473ffffffffffffffffffffffffffffffffffffffff16905081600b60006101000a81548173ffffffffffffffffffffffffffffffffffffffff021916908373ffffffffffffffffffffffffffffffffffffffff1602179055508173ffffffffffffffffffffffffffffffffffffffff168173ffffffffffffffffffffffffffffffffffffffff167f8be0079c531659141344cd1fd0a4f28419497f9722a3daafe3b4186f6b6457e060405160405180910390a35050565b600081519050919050565b7f4e487b7100000000000000000000000000000000000000000000000000000000600052604160045260246000fd5b7f4e487b7100000000000000000000000000000000000000000000000000000000600052602260045260246000fd5b600060028204905060018216806200021a57607f821691505b60208210810362000230576200022f620001d2565b5b50919050565b60008190508160005260206000209050919050565b60006020601f8301049050919050565b600082821b905092915050565b6000600883026200029a7fffffffffffffffffffffffffffffffffffffffffffffffffffffffffffffffff826200025b565b620002a686836200025b565b95508019841693508086168417925050509392505050565b6000819050919050565b6000819050919050565b6000620002f3620002ed620002e784620002be565b620002c8565b620002be565b9050919050565b6000819050919050565b6200030f83620002d2565b620003276200031e82620002fa565b84845462000268565b825550505050565b600090565b6200033e6200032f565b6200034b81848462000304565b505050565b5b8181101562000373576200036760008262000334565b60018101905062000351565b5050565b601f821115620003c2576200038c8162000236565b62000397846200024b565b81016020851015620003a7578190505b620003bf620003b6856200024b565b83018262000350565b50505b505050565b600082821c905092915050565b6000620003e760001984600802620003c7565b1980831691505092915050565b6000620004028383620003d4565b9150826002028217905092915050565b6200041d8262000198565b67ffffffffffffffff811115620004395762000438620001a3565b5b62000445825462000201565b6200045282828562000377565b600060209050601f8311600181146200048a576000841562000475578287015190505b620004818582620003f4565b865550620004f1565b601f1984166200049a8662000236565b60005b82811015620004c4578489015182556001820191506020850194506020810190506200049d565b86831015620004e45784890151620004e0601f891682620003d4565b8355505b6001600288020188555050505b505050505050565b613bb380620005096000396000f3fe608060405234801561001057600080fd5b50600436106101425760003560e01c806370a08231116100b8578063a22cb4651161007c578063a22cb46514610377578063b88d4fde14610393578063c87b56dd146103af578063d204c45e146103df578063e985e9c5146103fb578063f2fde38b1461042b57610142565b806370a08231146102e3578063715018a61461031357806384c4bd4b1461031d5780638da5cb5b1461033b57806395d89b411461035957610142565b806323b872dd1161010a57806323b872dd146101ff5780632f745c591461021b57806342842e0e1461024b57806342966c68146102675780634f6ccce7146102835780636352211e146102b357610142565b806301ffc9a71461014757806306fdde0314610177578063081812fc14610195578063095ea7b3146101c557806318160ddd146101e1575b600080fd5b610161600480360381019061015c91906126c8565b610447565b60405161016e9190612710565b60405180910390f35b61017f610459565b60405161018c91906127bb565b60405180910390f35b6101af60048036038101906101aa9190612813565b6104eb565b6040516101bc9190612881565b60405180910390f35b6101df60048036038101906101da91906128c8565b610531565b005b6101e9610648565b6040516101f69190612917565b60405180910390f35b61021960048036038101906102149190612932565b610655565b005b610235600480360381019061023091906128c8565b6106b5565b6040516102429190612917565b60405180910390f35b61026560048036038101906102609190612932565b61075a565b005b610281600480360381019061027c9190612813565b61077a565b005b61029d60048036038101906102989190612813565b6107d6565b6040516102aa9190612917565b60405180910390f35b6102cd60048036038101906102c89190612813565b610847565b6040516102da9190612881565b60405180910390f35b6102fd60048036038101906102f89190612985565b6108cd565b60405161030a9190612917565b60405180910390f35b61031b610984565b005b610325610998565b6040516103329190612917565b60405180910390f35b6103436109a4565b6040516103509190612881565b60405180910390f35b6103616109ce565b60405161036e91906127bb565b60405180910390f35b610391600480360381019061038c91906129de565b610a60565b005b6103ad60048036038101906103a89190612b53565b610a76565b005b6103c960048036038101906103c49190612813565b610ad8565b6040516103d691906127bb565b60405180910390f35b6103f960048036038101906103f49190612c77565b610aea565b005b61041560048036038101906104109190612cd3565b610b23565b6040516104229190612710565b60405180910390f35b61044560048036038101906104409190612985565b610bb7565b005b600061045282610c3a565b9050919050565b60606000805461046890612d42565b80601f016020809104026020016040519081016040528092919081815260200182805461049490612d42565b80156104e15780601f106104b6576101008083540402835291602001916104e1565b820191906000526020600020905b8154815290600101906020018083116104c457829003601f168201915b5050505050905090565b60006104f682610cb4565b6004600083815260200190815260200160002060009054906101000a900473ffffffffffffffffffffffffffffffffffffffff169050919050565b600061053c82610847565b90508073ffffffffffffffffffffffffffffffffffffffff168373ffffffffffffffffffffffffffffffffffffffff16036105ac576040517f08c379a00000000000000000000000000000000000000000000000000000000081526004016105a390612de5565b60405180910390fd5b8073ffffffffffffffffffffffffffffffffffffffff166105cb610cff565b73ffffffffffffffffffffffffffffffffffffffff1614806105fa57506105f9816105f4610cff565b610b23565b5b610639576040517f08c379a000000000000000000000000000000000000000000000000000000000815260040161063090612e77565b60405180910390fd5b6106438383610d07565b505050565b6000600880549050905090565b610666610660610cff565b82610dc0565b6106a5576040517f08c379a000000000000000000000000000000000000000000000000000000000815260040161069c90612f09565b60405180910390fd5b6106b0838383610e55565b505050565b60006106c0836108cd565b8210610701576040517f08c379a00000000000000000000000000000000000000000000000000000000081526004016106f890612f9b565b60405180910390fd5b600660008473ffffffffffffffffffffffffffffffffffffffff1673ffffffffffffffffffffffffffffffffffffffff168152602001908152602001600020600083815260200190815260200160002054905092915050565b61077583838360405180602001604052806000815250610a76565b505050565b61078b610785610cff565b82610dc0565b6107ca576040517f08c379a00000000000000000000000000000000000000000000000000000000081526004016107c190612f09565b60405180910390fd5b6107d38161114e565b50565b60006107e0610648565b8210610821576040517f08c379a00000000000000000000000000000000000000000000000000000000081526004016108189061302d565b60405180910390fd5b600882815481106108355761083461304d565b5b90600052602060002001549050919050565b6000806108538361115a565b9050600073ffffffffffffffffffffffffffffffffffffffff168173ffffffffffffffffffffffffffffffffffffffff16036108c4576040517f08c379a00000000000000000000000000000000000000000000000000000000081526004016108bb906130c8565b60405180910390fd5b80915050919050565b60008073ffffffffffffffffffffffffffffffffffffffff168273ffffffffffffffffffffffffffffffffffffffff160361093d576040517f08c379a00000000000000000000000000000000000000000000000000000000081526004016109349061315a565b60405180910390fd5b600360008373ffffffffffffffffffffffffffffffffffffffff1673ffffffffffffffffffffffffffffffffffffffff168152602001908152602001600020549050919050565b61098c611197565b6109966000611215565b565b600c8060000154905081565b6000600b60009054906101000a900473ffffffffffffffffffffffffffffffffffffffff16905090565b6060600180546109dd90612d42565b80601f0160208091040260200160405190810160405280929190818152602001828054610a0990612d42565b8015610a565780601f10610a2b57610100808354040283529160200191610a56565b820191906000526020600020905b815481529060010190602001808311610a3957829003601f168201915b5050505050905090565b610a72610a6b610cff565b83836112db565b5050565b610a87610a81610cff565b83610dc0565b610ac6576040517f08c379a0000000000000000000000000000000000000000000000000000000008152600401610abd90612f09565b60405180910390fd5b610ad284848484611447565b50505050565b6060610ae3826114a3565b9050919050565b610af2611197565b610afc600c6115b5565b6000610b08600c6115cb565b9050610b1483826115d9565b610b1e81836115f7565b505050565b6000600560008473ffffffffffffffffffffffffffffffffffffffff1673ffffffffffffffffffffffffffffffffffffffff16815260200190815260200160002060008373ffffffffffffffffffffffffffffffffffffffff1673ffffffffffffffffffffffffffffffffffffffff16815260200190815260200160002060009054906101000a900460ff16905092915050565b610bbf611197565b600073ffffffffffffffffffffffffffffffffffffffff168173ffffffffffffffffffffffffffffffffffffffff1603610c2e576040517f08c379a0000000000000000000000000000000000000000000000000000000008152600401610c25906131ec565b60405180910390fd5b610c3781611215565b50565b60007f780e9d63000000000000000000000000000000000000000000000000000000007bffffffffffffffffffffffffffffffffffffffffffffffffffffffff1916827bffffffffffffffffffffffffffffffffffffffffffffffffffffffff19161480610cad5750610cac82611664565b5b9050919050565b610cbd81611746565b610cfc576040517f08c379a0000000000000000000000000000000000000000000000000000000008152600401610cf3906130c8565b60405180910390fd5b50565b600033905090565b816004600083815260200190815260200160002060006101000a81548173ffffffffffffffffffffffffffffffffffffffff021916908373ffffffffffffffffffffffffffffffffffffffff160217905550808273ffffffffffffffffffffffffffffffffffffffff16610d7a83610847565b73ffffffffffffffffffffffffffffffffffffffff167f8c5be1e5ebec7d5bd14f71427d1e84f3dd0314c0f7b2291e5b200ac8c7c3b92560405160405180910390a45050565b600080610dcc83610847565b90508073ffffffffffffffffffffffffffffffffffffffff168473ffffffffffffffffffffffffffffffffffffffff161480610e0e5750610e0d8185610b23565b5b80610e4c57508373ffffffffffffffffffffffffffffffffffffffff16610e34846104eb565b73ffffffffffffffffffffffffffffffffffffffff16145b91505092915050565b8273ffffffffffffffffffffffffffffffffffffffff16610e7582610847565b73ffffffffffffffffffffffffffffffffffffffff1614610ecb576040517f08c379a0000000000000000000000000000000000000000000000000000000008152600401610ec29061327e565b60405180910390fd5b600073ffffffffffffffffffffffffffffffffffffffff168273ffffffffffffffffffffffffffffffffffffffff1603610f3a576040517f08c379a0000000000000000000000000000000000000000000000000000000008152600401610f3190613310565b60405180910390fd5b610f478383836001611787565b8273ffffffffffffffffffffffffffffffffffffffff16610f6782610847565b73ffffffffffffffffffffffffffffffffffffffff1614610fbd576040517f08c379a0000000000000000000000000000000000000000000000000000000008152600401610fb49061327e565b60405180910390fd5b6004600082815260200190815260200160002060006101000a81549073ffffffffffffffffffffffffffffffffffffffff02191690556001600360008573ffffffffffffffffffffffffffffffffffffffff1673ffffffffffffffffffffffffffffffffffffffff168152602001908152602001600020600082825403925050819055506001600360008473ffffffffffffffffffffffffffffffffffffffff1673ffffffffffffffffffffffffffffffffffffffff16815260200190815260200160002060008282540192505081905550816002600083815260200190815260200160002060006101000a81548173ffffffffffffffffffffffffffffffffffffffff021916908373ffffffffffffffffffffffffffffffffffffffff160217905550808273ffffffffffffffffffffffffffffffffffffffff168473ffffffffffffffffffffffffffffffffffffffff167fddf252ad1be2c89b69c2b068fc378daa952ba7f163c4a11628f55a4df523b3ef60405160405180910390a46111498383836001611799565b505050565b6111578161179f565b50565b60006002600083815260200190815260200160002060009054906101000a900473ffffffffffffffffffffffffffffffffffffffff169050919050565b61119f610cff565b73ffffffffffffffffffffffffffffffffffffffff166111bd6109a4565b73ffffffffffffffffffffffffffffffffffffffff1614611213576040517f08c379a000000000000000000000000000000000000000000000000000000000815260040161120a9061337c565b60405180910390fd5b565b6000600b60009054906101000a900473ffffffffffffffffffffffffffffffffffffffff16905081600b60006101000a81548173ffffffffffffffffffffffffffffffffffffffff021916908373ffffffffffffffffffffffffffffffffffffffff1602179055508173ffffffffffffffffffffffffffffffffffffffff168173ffffffffffffffffffffffffffffffffffffffff167f8be0079c531659141344cd1fd0a4f28419497f9722a3daafe3b4186f6b6457e060405160405180910390a35050565b8173ffffffffffffffffffffffffffffffffffffffff168373ffffffffffffffffffffffffffffffffffffffff1603611349576040517f08c379a0000000000000000000000000000000000000000000000000000000008152600401611340906133e8565b60405180910390fd5b80600560008573ffffffffffffffffffffffffffffffffffffffff1673ffffffffffffffffffffffffffffffffffffffff16815260200190815260200160002060008473ffffffffffffffffffffffffffffffffffffffff1673ffffffffffffffffffffffffffffffffffffffff16815260200190815260200160002060006101000a81548160ff0219169083151502179055508173ffffffffffffffffffffffffffffffffffffffff168373ffffffffffffffffffffffffffffffffffffffff167f17307eab39ab6107e8899845ad3d59bd9653f200f220920489ca2b5937696c318360405161143a9190612710565b60405180910390a3505050565b611452848484610e55565b61145e848484846117f2565b61149d576040517f08c379a00000000000000000000000000000000000000000000000000000000081526004016114949061347a565b60405180910390fd5b50505050565b60606114ae82610cb4565b6000600a600084815260200190815260200160002080546114ce90612d42565b80601f01602080910402602001604051908101604052809291908181526020018280546114fa90612d42565b80156115475780601f1061151c57610100808354040283529160200191611547565b820191906000526020600020905b81548152906001019060200180831161152a57829003601f168201915b505050505090506000611558611979565b9050600081510361156d5781925050506115b0565b6000825111156115a257808260405160200161158a9291906134d6565b604051602081830303815290604052925050506115b0565b6115ab84611999565b925050505b919050565b6001816000016000828254019250508190555050565b600081600001549050919050565b6115f3828260405180602001604052806000815250611a01565b5050565b61160082611746565b61163f576040517f08c379a00000000000000000000000000000000000000000000000000000000081526004016116369061356c565b60405180910390fd5b80600a6000848152602001908152602001600020908161165f9190613738565b505050565b60007f80ac58cd000000000000000000000000000000000000000000000000000000007bffffffffffffffffffffffffffffffffffffffffffffffffffffffff1916827bffffffffffffffffffffffffffffffffffffffffffffffffffffffff1916148061172f57507f5b5e139f000000000000000000000000000000000000000000000000000000007bffffffffffffffffffffffffffffffffffffffffffffffffffffffff1916827bffffffffffffffffffffffffffffffffffffffffffffffffffffffff1916145b8061173f575061173e82611a5c565b5b9050919050565b60008073ffffffffffffffffffffffffffffffffffffffff166117688361115a565b73ffffffffffffffffffffffffffffffffffffffff1614159050919050565b61179384848484611ac6565b50505050565b50505050565b6117a881611c24565b6000600a600083815260200190815260200160002080546117c890612d42565b9050146117ef57600a600082815260200190815260200160002060006117ee91906125ff565b5b50565b60006118138473ffffffffffffffffffffffffffffffffffffffff16611d72565b1561196c578373ffffffffffffffffffffffffffffffffffffffff1663150b7a0261183c610cff565b8786866040518563ffffffff1660e01b815260040161185e949392919061385f565b6020604051808303816000875af192505050801561189a57506040513d601f19601f8201168201806040525081019061189791906138c0565b60015b61191c573d80600081146118ca576040519150601f19603f3d011682016040523d82523d6000602084013e6118cf565b606091505b506000815103611914576040517f08c379a000000000000000000000000000000000000000000000000000000000815260040161190b9061347a565b60405180910390fd5b805181602001fd5b63150b7a0260e01b7bffffffffffffffffffffffffffffffffffffffffffffffffffffffff1916817bffffffffffffffffffffffffffffffffffffffffffffffffffffffff191614915050611971565b600190505b949350505050565b6060604051806060016040528060318152602001613b4d60319139905090565b60606119a482610cb4565b60006119ae611979565b905060008151116119ce57604051806020016040528060008152506119f9565b806119d884611d95565b6040516020016119e99291906134d6565b6040516020818303038152906040525b915050919050565b611a0b8383611e63565b611a1860008484846117f2565b611a57576040517f08c379a0000000000000000000000000000000000000000000000000000000008152600401611a4e9061347a565b60405180910390fd5b505050565b60007f01ffc9a7000000000000000000000000000000000000000000000000000000007bffffffffffffffffffffffffffffffffffffffffffffffffffffffff1916827bffffffffffffffffffffffffffffffffffffffffffffffffffffffff1916149050919050565b611ad284848484612080565b6001811115611b16576040517f08c379a0000000000000000000000000000000000000000000000000000000008152600401611b0d9061395f565b60405180910390fd5b6000829050600073ffffffffffffffffffffffffffffffffffffffff168573ffffffffffffffffffffffffffffffffffffffff1603611b5d57611b58816121a6565b611b9c565b8373ffffffffffffffffffffffffffffffffffffffff168573ffffffffffffffffffffffffffffffffffffffff1614611b9b57611b9a85826121ef565b5b5b600073ffffffffffffffffffffffffffffffffffffffff168473ffffffffffffffffffffffffffffffffffffffff1603611bde57611bd98161235c565b611c1d565b8473ffffffffffffffffffffffffffffffffffffffff168473ffffffffffffffffffffffffffffffffffffffff1614611c1c57611c1b848261242d565b5b5b5050505050565b6000611c2f82610847565b9050611c3f816000846001611787565b611c4882610847565b90506004600083815260200190815260200160002060006101000a81549073ffffffffffffffffffffffffffffffffffffffff02191690556001600360008373ffffffffffffffffffffffffffffffffffffffff1673ffffffffffffffffffffffffffffffffffffffff168152602001908152602001600020600082825403925050819055506002600083815260200190815260200160002060006101000a81549073ffffffffffffffffffffffffffffffffffffffff021916905581600073ffffffffffffffffffffffffffffffffffffffff168273ffffffffffffffffffffffffffffffffffffffff167fddf252ad1be2c89b69c2b068fc378daa952ba7f163c4a11628f55a4df523b3ef60405160405180910390a4611d6e816000846001611799565b5050565b6000808273ffffffffffffffffffffffffffffffffffffffff163b119050919050565b606060006001611da4846124ac565b01905060008167ffffffffffffffff811115611dc357611dc2612a28565b5b6040519080825280601f01601f191660200182016040528015611df55781602001600182028036833780820191505090505b509050600082602001820190505b600115611e58578080600190039150507f3031323334353637383961626364656600000000000000000000000000000000600a86061a8153600a8581611e4c57611e4b61397f565b5b04945060008503611e03575b819350505050919050565b600073ffffffffffffffffffffffffffffffffffffffff168273ffffffffffffffffffffffffffffffffffffffff1603611ed2576040517f08c379a0000000000000000000000000000000000000000000000000000000008152600401611ec9906139fa565b60405180910390fd5b611edb81611746565b15611f1b576040517f08c379a0000000000000000000000000000000000000000000000000000000008152600401611f1290613a66565b60405180910390fd5b611f29600083836001611787565b611f3281611746565b15611f72576040517f08c379a0000000000000000000000000000000000000000000000000000000008152600401611f6990613a66565b60405180910390fd5b6001600360008473ffffffffffffffffffffffffffffffffffffffff1673ffffffffffffffffffffffffffffffffffffffff16815260200190815260200160002060008282540192505081905550816002600083815260200190815260200160002060006101000a81548173ffffffffffffffffffffffffffffffffffffffff021916908373ffffffffffffffffffffffffffffffffffffffff160217905550808273ffffffffffffffffffffffffffffffffffffffff16600073ffffffffffffffffffffffffffffffffffffffff167fddf252ad1be2c89b69c2b068fc378daa952ba7f163c4a11628f55a4df523b3ef60405160405180910390a461207c600083836001611799565b5050565b60018111156121a057600073ffffffffffffffffffffffffffffffffffffffff168473ffffffffffffffffffffffffffffffffffffffff16146121145780600360008673ffffffffffffffffffffffffffffffffffffffff1673ffffffffffffffffffffffffffffffffffffffff168152602001908152602001600020600082825461210c9190613ab5565b925050819055505b600073ffffffffffffffffffffffffffffffffffffffff168373ffffffffffffffffffffffffffffffffffffffff161461219f5780600360008573ffffffffffffffffffffffffffffffffffffffff1673ffffffffffffffffffffffffffffffffffffffff16815260200190815260200160002060008282546121979190613ae9565b925050819055505b5b50505050565b6008805490506009600083815260200190815260200160002081905550600881908060018154018082558091505060019003906000526020600020016000909190919091505550565b600060016121fc846108cd565b6122069190613ab5565b90506000600760008481526020019081526020016000205490508181146122eb576000600660008673ffffffffffffffffffffffffffffffffffffffff1673ffffffffffffffffffffffffffffffffffffffff168152602001908152602001600020600084815260200190815260200160002054905080600660008773ffffffffffffffffffffffffffffffffffffffff1673ffffffffffffffffffffffffffffffffffffffff168152602001908152602001600020600084815260200190815260200160002081905550816007600083815260200190815260200160002081905550505b6007600084815260200190815260200160002060009055600660008573ffffffffffffffffffffffffffffffffffffffff1673ffffffffffffffffffffffffffffffffffffffff16815260200190815260200160002060008381526020019081526020016000206000905550505050565b600060016008805490506123709190613ab5565b90506000600960008481526020019081526020016000205490506000600883815481106123a05761239f61304d565b5b9060005260206000200154905080600883815481106123c2576123c161304d565b5b90600052602060002001819055508160096000838152602001908152602001600020819055506009600085815260200190815260200160002060009055600880548061241157612410613b1d565b5b6001900381819060005260206000200160009055905550505050565b6000612438836108cd565b905081600660008573ffffffffffffffffffffffffffffffffffffffff1673ffffffffffffffffffffffffffffffffffffffff168152602001908152602001600020600083815260200190815260200160002081905550806007600084815260200190815260200160002081905550505050565b600080600090507a184f03e93ff9f4daa797ed6e38ed64bf6a1f010000000000000000831061250a577a184f03e93ff9f4daa797ed6e38ed64bf6a1f0100000000000000008381612500576124ff61397f565b5b0492506040810190505b6d04ee2d6d415b85acef81000000008310612547576d04ee2d6d415b85acef8100000000838161253d5761253c61397f565b5b0492506020810190505b662386f26fc10000831061257657662386f26fc10000838161256c5761256b61397f565b5b0492506010810190505b6305f5e100831061259f576305f5e10083816125955761259461397f565b5b0492506008810190505b61271083106125c45761271083816125ba576125b961397f565b5b0492506004810190505b606483106125e757606483816125dd576125dc61397f565b5b0492506002810190505b600a83106125f6576001810190505b80915050919050565b50805461260b90612d42565b6000825580601f1061261d575061263c565b601f01602090049060005260206000209081019061263b919061263f565b5b50565b5b80821115612658576000816000905550600101612640565b5090565b6000604051905090565b600080fd5b600080fd5b60007fffffffff0000000000000000000000000000000000000000000000000000000082169050919050565b6126a581612670565b81146126b057600080fd5b50565b6000813590506126c28161269c565b92915050565b6000602082840312156126de576126dd612666565b5b60006126ec848285016126b3565b91505092915050565b60008115159050919050565b61270a816126f5565b82525050565b60006020820190506127256000830184612701565b92915050565b600081519050919050565b600082825260208201905092915050565b60005b8381101561276557808201518184015260208101905061274a565b60008484015250505050565b6000601f19601f8301169050919050565b600061278d8261272b565b6127978185612736565b93506127a7818560208601612747565b6127b081612771565b840191505092915050565b600060208201905081810360008301526127d58184612782565b905092915050565b6000819050919050565b6127f0816127dd565b81146127fb57600080fd5b50565b60008135905061280d816127e7565b92915050565b60006020828403121561282957612828612666565b5b6000612837848285016127fe565b91505092915050565b600073ffffffffffffffffffffffffffffffffffffffff82169050919050565b600061286b82612840565b9050919050565b61287b81612860565b82525050565b60006020820190506128966000830184612872565b92915050565b6128a581612860565b81146128b057600080fd5b50565b6000813590506128c28161289c565b92915050565b600080604083850312156128df576128de612666565b5b60006128ed858286016128b3565b92505060206128fe858286016127fe565b9150509250929050565b612911816127dd565b82525050565b600060208201905061292c6000830184612908565b92915050565b60008060006060848603121561294b5761294a612666565b5b6000612959868287016128b3565b935050602061296a868287016128b3565b925050604061297b868287016127fe565b9150509250925092565b60006020828403121561299b5761299a612666565b5b60006129a9848285016128b3565b91505092915050565b6129bb816126f5565b81146129c657600080fd5b50565b6000813590506129d8816129b2565b92915050565b600080604083850312156129f5576129f4612666565b5b6000612a03858286016128b3565b9250506020612a14858286016129c9565b9150509250929050565b600080fd5b600080fd5b7f4e487b7100000000000000000000000000000000000000000000000000000000600052604160045260246000fd5b612a6082612771565b810181811067ffffffffffffffff82111715612a7f57612a7e612a28565b5b80604052505050565b6000612a9261265c565b9050612a9e8282612a57565b919050565b600067ffffffffffffffff821115612abe57612abd612a28565b5b612ac782612771565b9050602081019050919050565b82818337600083830152505050565b6000612af6612af184612aa3565b612a88565b905082815260208101848484011115612b1257612b11612a23565b5b612b1d848285612ad4565b509392505050565b600082601f830112612b3a57612b39612a1e565b5b8135612b4a848260208601612ae3565b91505092915050565b60008060008060808587031215612b6d57612b6c612666565b5b6000612b7b878288016128b3565b9450506020612b8c878288016128b3565b9350506040612b9d878288016127fe565b925050606085013567ffffffffffffffff811115612bbe57612bbd61266b565b5b612bca87828801612b25565b91505092959194509250565b600067ffffffffffffffff821115612bf157612bf0612a28565b5b612bfa82612771565b9050602081019050919050565b6000612c1a612c1584612bd6565b612a88565b905082815260208101848484011115612c3657612c35612a23565b5b612c41848285612ad4565b509392505050565b600082601f830112612c5e57612c5d612a1e565b5b8135612c6e848260208601612c07565b91505092915050565b60008060408385031215612c8e57612c8d612666565b5b6000612c9c858286016128b3565b925050602083013567ffffffffffffffff811115612cbd57612cbc61266b565b5b612cc985828601612c49565b9150509250929050565b60008060408385031215612cea57612ce9612666565b5b6000612cf8858286016128b3565b9250506020612d09858286016128b3565b9150509250929050565b7f4e487b7100000000000000000000000000000000000000000000000000000000600052602260045260246000fd5b60006002820490506001821680612d5a57607f821691505b602082108103612d6d57612d6c612d13565b5b50919050565b7f4552433732313a20617070726f76616c20746f2063757272656e74206f776e6560008201527f7200000000000000000000000000000000000000000000000000000000000000602082015250565b6000612dcf602183612736565b9150612dda82612d73565b604082019050919050565b60006020820190508181036000830152612dfe81612dc2565b9050919050565b7f4552433732313a20617070726f76652063616c6c6572206973206e6f7420746f60008201527f6b656e206f776e6572206f7220617070726f76656420666f7220616c6c000000602082015250565b6000612e61603d83612736565b9150612e6c82612e05565b604082019050919050565b60006020820190508181036000830152612e9081612e54565b9050919050565b7f4552433732313a2063616c6c6572206973206e6f7420746f6b656e206f776e6560008201527f72206f7220617070726f76656400000000000000000000000000000000000000602082015250565b6000612ef3602d83612736565b9150612efe82612e97565b604082019050919050565b60006020820190508181036000830152612f2281612ee6565b9050919050565b7f455243373231456e756d657261626c653a206f776e657220696e646578206f7560008201527f74206f6620626f756e6473000000000000000000000000000000000000000000602082015250565b6000612f85602b83612736565b9150612f9082612f29565b604082019050919050565b60006020820190508181036000830152612fb481612f78565b9050919050565b7f455243373231456e756d657261626c653a20676c6f62616c20696e646578206f60008201527f7574206f6620626f756e64730000000000000000000000000000000000000000602082015250565b6000613017602c83612736565b915061302282612fbb565b604082019050919050565b600060208201905081810360008301526130468161300a565b9050919050565b7f4e487b7100000000000000000000000000000000000000000000000000000000600052603260045260246000fd5b7f4552433732313a20696e76616c696420746f6b656e2049440000000000000000600082015250565b60006130b2601883612736565b91506130bd8261307c565b602082019050919050565b600060208201905081810360008301526130e1816130a5565b9050919050565b7f4552433732313a2061646472657373207a65726f206973206e6f74206120766160008201527f6c6964206f776e65720000000000000000000000000000000000000000000000602082015250565b6000613144602983612736565b915061314f826130e8565b604082019050919050565b6000602082019050818103600083015261317381613137565b9050919050565b7f4f776e61626c653a206e6577206f776e657220697320746865207a65726f206160008201527f6464726573730000000000000000000000000000000000000000000000000000602082015250565b60006131d6602683612736565b91506131e18261317a565b604082019050919050565b60006020820190508181036000830152613205816131c9565b9050919050565b7f4552433732313a207472616e736665722066726f6d20696e636f72726563742060008201527f6f776e6572000000000000000000000000000000000000000000000000000000602082015250565b6000613268602583612736565b91506132738261320c565b604082019050919050565b600060208201905081810360008301526132978161325b565b9050919050565b7f4552433732313a207472616e7366657220746f20746865207a65726f2061646460008201527f7265737300000000000000000000000000000000000000000000000000000000602082015250565b60006132fa602483612736565b91506133058261329e565b604082019050919050565b60006020820190508181036000830152613329816132ed565b9050919050565b7f4f776e61626c653a2063616c6c6572206973206e6f7420746865206f776e6572600082015250565b6000613366602083612736565b915061337182613330565b602082019050919050565b6000602082019050818103600083015261339581613359565b9050919050565b7f4552433732313a20617070726f766520746f2063616c6c657200000000000000600082015250565b60006133d2601983612736565b91506133dd8261339c565b602082019050919050565b60006020820190508181036000830152613401816133c5565b9050919050565b7f4552433732313a207472616e7366657220746f206e6f6e20455243373231526560008201527f63656976657220696d706c656d656e7465720000000000000000000000000000602082015250565b6000613464603283612736565b915061346f82613408565b604082019050919050565b6000602082019050818103600083015261349381613457565b9050919050565b600081905092915050565b60006134b08261272b565b6134ba818561349a565b93506134ca818560208601612747565b80840191505092915050565b60006134e282856134a5565b91506134ee82846134a5565b91508190509392505050565b7f45524337323155524953746f726167653a2055524920736574206f66206e6f6e60008201527f6578697374656e7420746f6b656e000000000000000000000000000000000000602082015250565b6000613556602e83612736565b9150613561826134fa565b604082019050919050565b6000602082019050818103600083015261358581613549565b9050919050565b60008190508160005260206000209050919050565b60006020601f8301049050919050565b600082821b905092915050565b6000600883026135ee7fffffffffffffffffffffffffffffffffffffffffffffffffffffffffffffffff826135b1565b6135f886836135b1565b95508019841693508086168417925050509392505050565b6000819050919050565b600061363561363061362b846127dd565b613610565b6127dd565b9050919050565b6000819050919050565b61364f8361361a565b61366361365b8261363c565b8484546135be565b825550505050565b600090565b61367861366b565b613683818484613646565b505050565b5b818110156136a75761369c600082613670565b600181019050613689565b5050565b601f8211156136ec576136bd8161358c565b6136c6846135a1565b810160208510156136d5578190505b6136e96136e1856135a1565b830182613688565b50505b505050565b600082821c905092915050565b600061370f600019846008026136f1565b1980831691505092915050565b600061372883836136fe565b9150826002028217905092915050565b6137418261272b565b67ffffffffffffffff81111561375a57613759612a28565b5b6137648254612d42565b61376f8282856136ab565b600060209050601f8311600181146137a25760008415613790578287015190505b61379a858261371c565b865550613802565b601f1984166137b08661358c565b60005b828110156137d8578489015182556001820191506020850194506020810190506137b3565b868310156137f557848901516137f1601f8916826136fe565b8355505b6001600288020188555050505b505050505050565b600081519050919050565b600082825260208201905092915050565b60006138318261380a565b61383b8185613815565b935061384b818560208601612747565b61385481612771565b840191505092915050565b60006080820190506138746000830187612872565b6138816020830186612872565b61388e6040830185612908565b81810360608301526138a08184613826565b905095945050505050565b6000815190506138ba8161269c565b92915050565b6000602082840312156138d6576138d5612666565b5b60006138e4848285016138ab565b91505092915050565b7f455243373231456e756d657261626c653a20636f6e736563757469766520747260008201527f616e7366657273206e6f7420737570706f727465640000000000000000000000602082015250565b6000613949603583612736565b9150613954826138ed565b604082019050919050565b600060208201905081810360008301526139788161393c565b9050919050565b7f4e487b7100000000000000000000000000000000000000000000000000000000600052601260045260246000fd5b7f4552433732313a206d696e7420746f20746865207a65726f2061646472657373600082015250565b60006139e4602083612736565b91506139ef826139ae565b602082019050919050565b60006020820190508181036000830152613a13816139d7565b9050919050565b7f4552433732313a20746f6b656e20616c7265616479206d696e74656400000000600082015250565b6000613a50601c83612736565b9150613a5b82613a1a565b602082019050919050565b60006020820190508181036000830152613a7f81613a43565b9050919050565b7f4e487b7100000000000000000000000000000000000000000000000000000000600052601160045260246000fd5b6000613ac0826127dd565b9150613acb836127dd565b9250828203905081811115613ae357613ae2613a86565b5b92915050565b6000613af4826127dd565b9150613aff836127dd565b9250828201905080821115613b1757613b16613a86565b5b92915050565b7f4e487b7100000000000000000000000000000000000000000000000000000000600052603160045260246000fdfe68747470733a2f2f6a656666707265737465732e6769746875622e696f2f746f6b656e7366656465726169732f6e66742fa2646970667358221220f860eddaeb6354580ff171edc0a2864c4c1370c1d44cf7d1cf57eab1bcc6856964736f6c63430008110033",
  "linkReferences": {},
  "deployedLinkReferences": {}
}