{
  "abi": [
    {
      "inputs": [],
      "stateMutability": "nonpayable",
      "type": "constructor"
    },
    {
      "anonymous": false,
      "inputs": [
        {
          "indexed": true,
          "internalType": "address",
          "name": "owner",
          "type": "address"
        },
        {
          "indexed": true,
          "internalType": "address",
          "name": "approved",
          "type": "address"
        },
        {
          "indexed": true,
          "internalType": "uint256",
          "name": "tokenId",
          "type": "uint256"
        }
      ],
      "name": "Approval",
      "type": "event"
    },
    {
      "anonymous": false,
      "inputs": [
        {
          "indexed": true,
          "internalType": "address",
          "name": "owner",
          "type": "address"
        },
        {
          "indexed": true,
          "internalType": "address",
          "name": "operator",
          "type": "address"
        },
        {
          "indexed": false,
          "internalType": "bool",
          "name": "approved",
          "type": "bool"
        }
      ],
      "name": "ApprovalForAll",
      "type": "event"
    },
    {
      "anonymous": false,
      "inputs": [
        {
          "indexed": true,
          "internalType": "address",
          "name": "previousOwner",
          "type": "address"
        },
        {
          "indexed": true,
          "internalType": "address",
          "name": "newOwner",
          "type": "address"
        }
      ],
      "name": "OwnershipTransferred",
      "type": "event"
    },
    {
      "anonymous": false,
      "inputs": [
        {
          "indexed": false,
          "internalType": "address",
          "name": "account",
          "type": "address"
        }
      ],
      "name": "Paused",
      "type": "event"
    },
    {
      "anonymous": false,
      "inputs": [
        {
          "indexed": true,
          "internalType": "address",
          "name": "from",
          "type": "address"
        },
        {
          "indexed": true,
          "internalType": "address",
          "name": "to",
          "type": "address"
        },
        {
          "indexed": true,
          "internalType": "uint256",
          "name": "tokenId",
          "type": "uint256"
        }
      ],
      "name": "Transfer",
      "type": "event"
    },
    {
      "anonymous": false,
      "inputs": [
        {
          "indexed": false,
          "internalType": "address",
          "name": "account",
          "type": "address"
        }
      ],
      "name": "Unpaused",
      "type": "event"
    },
    {
      "inputs": [
        {
          "internalType": "address",
          "name": "to",
          "type": "address"
        },
        {
          "internalType": "uint256",
          "name": "tokenId",
          "type": "uint256"
        }
      ],
      "name": "approve",
      "outputs": [],
      "stateMutability": "nonpayable",
      "type": "function"
    },
    {
      "inputs": [
        {
          "internalType": "address",
          "name": "owner",
          "type": "address"
        }
      ],
      "name": "balanceOf",
      "outputs": [
        {
          "internalType": "uint256",
          "name": "",
          "type": "uint256"
        }
      ],
      "stateMutability": "view",
      "type": "function"
    },
    {
      "inputs": [
        {
          "internalType": "uint256",
          "name": "tokenId",
          "type": "uint256"
        }
      ],
      "name": "burn",
      "outputs": [],
      "stateMutability": "nonpayable",
      "type": "function"
    },
    {
      "inputs": [
        {
          "internalType": "uint256",
          "name": "tokenId",
          "type": "uint256"
        }
      ],
      "name": "getApproved",
      "outputs": [
        {
          "internalType": "address",
          "name": "",
          "type": "address"
        }
      ],
      "stateMutability": "view",
      "type": "function"
    },
    {
      "inputs": [
        {
          "internalType": "address",
          "name": "owner",
          "type": "address"
        },
        {
          "internalType": "address",
          "name": "operator",
          "type": "address"
        }
      ],
      "name": "isApprovedForAll",
      "outputs": [
        {
          "internalType": "bool",
          "name": "",
          "type": "bool"
        }
      ],
      "stateMutability": "view",
      "type": "function"
    },
    {
      "inputs": [],
      "name": "name",
      "outputs": [
        {
          "internalType": "string",
          "name": "",
          "type": "string"
        }
      ],
      "stateMutability": "view",
      "type": "function"
    },
    {
      "inputs": [],
      "name": "owner",
      "outputs": [
        {
          "internalType": "address",
          "name": "",
          "type": "address"
        }
      ],
      "stateMutability": "view",
      "type": "function"
    },
    {
      "inputs": [
        {
          "internalType": "uint256",
          "name": "tokenId",
          "type": "uint256"
        }
      ],
      "name": "ownerOf",
      "outputs": [
        {
          "internalType": "address",
          "name": "",
          "type": "address"
        }
      ],
      "stateMutability": "view",
      "type": "function"
    },
    {
      "inputs": [],
      "name": "pause",
      "outputs": [],
      "stateMutability": "nonpayable",
      "type": "function"
    },
    {
      "inputs": [],
      "name": "paused",
      "outputs": [
        {
          "internalType": "bool",
          "name": "",
          "type": "bool"
        }
      ],
      "stateMutability": "view",
      "type": "function"
    },
    {
      "inputs": [],
      "name": "renounceOwnership",
      "outputs": [],
      "stateMutability": "nonpayable",
      "type": "function"
    },
    {
      "inputs": [
        {
          "internalType": "address",
          "name": "to",
          "type": "address"
        },
        {
          "internalType": "uint256",
          "name": "tokenId",
          "type": "uint256"
        },
        {
          "internalType": "string",
          "name": "uri",
          "type": "string"
        }
      ],
      "name": "safeMint",
      "outputs": [],
      "stateMutability": "nonpayable",
      "type": "function"
    },
    {
      "inputs": [
        {
          "internalType": "address",
          "name": "from",
          "type": "address"
        },
        {
          "internalType": "address",
          "name": "to",
          "type": "address"
        },
        {
          "internalType": "uint256",
          "name": "tokenId",
          "type": "uint256"
        }
      ],
      "name": "safeTransferFrom",
      "outputs": [],
      "stateMutability": "nonpayable",
      "type": "function"
    },
    {
      "inputs": [
        {
          "internalType": "address",
          "name": "from",
          "type": "address"
        },
        {
          "internalType": "address",
          "name": "to",
          "type": "address"
        },
        {
          "internalType": "uint256",
          "name": "tokenId",
          "type": "uint256"
        },
        {
          "internalType": "bytes",
          "name": "data",
          "type": "bytes"
        }
      ],
      "name": "safeTransferFrom",
      "outputs": [],
      "stateMutability": "nonpayable",
      "type": "function"
    },
    {
      "inputs": [
        {
          "internalType": "address",
          "name": "operator",
          "type": "address"
        },
        {
          "internalType": "bool",
          "name": "approved",
          "type": "bool"
        }
      ],
      "name": "setApprovalForAll",
      "outputs": [],
      "stateMutability": "nonpayable",
      "type": "function"
    },
    {
      "inputs": [
        {
          "internalType": "bytes4",
          "name": "interfaceId",
          "type": "bytes4"
        }
      ],
      "name": "supportsInterface",
      "outputs": [
        {
          "internalType": "bool",
          "name": "",
          "type": "bool"
        }
      ],
      "stateMutability": "view",
      "type": "function"
    },
    {
      "inputs": [],
      "name": "symbol",
      "outputs": [
        {
          "internalType": "string",
          "name": "",
          "type": "string"
        }
      ],
      "stateMutability": "view",
      "type": "function"
    },
    {
      "inputs": [
        {
          "internalType": "uint256",
          "name": "index",
          "type": "uint256"
        }
      ],
      "name": "tokenByIndex",
      "outputs": [
        {
          "internalType": "uint256",
          "name": "",
          "type": "uint256"
        }
      ],
      "stateMutability": "view",
      "type": "function"
    },
    {
      "inputs": [
        {
          "internalType": "address",
          "name": "owner",
          "type": "address"
        },
        {
          "internalType": "uint256",
          "name": "index",
          "type": "uint256"
        }
      ],
      "name": "tokenOfOwnerByIndex",
      "outputs": [
        {
          "internalType": "uint256",
          "name": "",
          "type": "uint256"
        }
      ],
      "stateMutability": "view",
      "type": "function"
    },
    {
      "inputs": [
        {
          "internalType": "uint256",
          "name": "tokenId",
          "type": "uint256"
        }
      ],
      "name": "tokenURI",
      "outputs": [
        {
          "internalType": "string",
          "name": "",
          "type": "string"
        }
      ],
      "stateMutability": "view",
      "type": "function"
    },
    {
      "inputs": [],
      "name": "totalSupply",
      "outputs": [
        {
          "internalType": "uint256",
          "name": "",
          "type": "uint256"
        }
      ],
      "stateMutability": "view",
      "type": "function"
    },
    {
      "inputs": [
        {
          "internalType": "address",
          "name": "from",
          "type": "address"
        },
        {
          "internalType": "address",
          "name": "to",
          "type": "address"
        },
        {
          "internalType": "uint256",
          "name": "tokenId",
          "type": "uint256"
        }
      ],
      "name": "transferFrom",
      "outputs": [],
      "stateMutability": "nonpayable",
      "type": "function"
    },
    {
      "inputs": [
        {
          "internalType": "address",
          "name": "newOwner",
          "type": "address"
        }
      ],
      "name": "transferOwnership",
      "outputs": [],
      "stateMutability": "nonpayable",
      "type": "function"
    },
    {
      "inputs": [],
      "name": "unpause",
      "outputs": [],
      "stateMutability": "nonpayable",
      "type": "function"
    }
  ],
  "bytecode": {
    "object": "0x60806040523480156200001157600080fd5b506040518060400160405280600981526020016824b6b7bb32b629232160b91b8152506040518060400160405280600481526020016324a9232160e11b81525081600090816200006291906200018e565b5060016200007182826200018e565b5050600b805460ff191690555062000089336200008f565b6200025a565b600b80546001600160a01b03838116610100818102610100600160a81b031985161790945560405193909204169182907f8be0079c531659141344cd1fd0a4f28419497f9722a3daafe3b4186f6b6457e090600090a35050565b634e487b7160e01b600052604160045260246000fd5b600181811c908216806200011457607f821691505b6020821081036200013557634e487b7160e01b600052602260045260246000fd5b50919050565b601f8211156200018957600081815260208120601f850160051c81016020861015620001645750805b601f850160051c820191505b81811015620001855782815560010162000170565b5050505b505050565b81516001600160401b03811115620001aa57620001aa620000e9565b620001c281620001bb8454620000ff565b846200013b565b602080601f831160018114620001fa5760008415620001e15750858301515b600019600386901b1c1916600185901b17855562000185565b600085815260208120601f198616915b828110156200022b578886015182559484019460019091019084016200020a565b50858210156200024a5787850151600019600388901b60f8161c191681555b5050505050600190811b01905550565b6120af806200026a6000396000f3fe608060405234801561001057600080fd5b50600436106101585760003560e01c80636352211e116100c3578063a22cb4651161007c578063a22cb465146102b2578063b88d4fde146102c5578063c87b56dd146102d8578063cd279c7c146102eb578063e985e9c5146102fe578063f2fde38b1461033a57600080fd5b80636352211e1461025e57806370a0823114610271578063715018a6146102845780638456cb591461028c5780638da5cb5b1461029457806395d89b41146102aa57600080fd5b80632f745c59116101155780632f745c59146101ff5780633f4ba83a1461021257806342842e0e1461021a57806342966c681461022d5780634f6ccce7146102405780635c975abb1461025357600080fd5b806301ffc9a71461015d57806306fdde0314610185578063081812fc1461019a578063095ea7b3146101c557806318160ddd146101da57806323b872dd146101ec575b600080fd5b61017061016b366004611a13565b61034d565b60405190151581526020015b60405180910390f35b61018d61035e565b60405161017c9190611a80565b6101ad6101a8366004611a93565b6103f0565b6040516001600160a01b03909116815260200161017c565b6101d86101d3366004611ac8565b610417565b005b6008545b60405190815260200161017c565b6101d86101fa366004611af2565b610531565b6101de61020d366004611ac8565b610563565b6101d86105f9565b6101d8610228366004611af2565b61060b565b6101d861023b366004611a93565b610626565b6101de61024e366004611a93565b610657565b600b5460ff16610170565b6101ad61026c366004611a93565b6106ea565b6101de61027f366004611b2e565b61074a565b6101d86107d0565b6101d86107e2565b600b5461010090046001600160a01b03166101ad565b61018d6107f2565b6101d86102c0366004611b49565b610801565b6101d86102d3366004611c11565b610810565b61018d6102e6366004611a93565b610848565b6101d86102f9366004611c8d565b610853565b61017061030c366004611cf8565b6001600160a01b03918216600090815260056020908152604080832093909416825291909152205460ff1690565b6101d8610348366004611b2e565b61086f565b6000610358826108e5565b92915050565b60606000805461036d90611d2b565b80601f016020809104026020016040519081016040528092919081815260200182805461039990611d2b565b80156103e65780601f106103bb576101008083540402835291602001916103e6565b820191906000526020600020905b8154815290600101906020018083116103c957829003601f168201915b5050505050905090565b60006103fb8261090a565b506000908152600460205260409020546001600160a01b031690565b6000610422826106ea565b9050806001600160a01b0316836001600160a01b0316036104945760405162461bcd60e51b815260206004820152602160248201527f4552433732313a20617070726f76616c20746f2063757272656e74206f776e656044820152603960f91b60648201526084015b60405180910390fd5b336001600160a01b03821614806104b057506104b0813361030c565b6105225760405162461bcd60e51b815260206004820152603d60248201527f4552433732313a20617070726f76652063616c6c6572206973206e6f7420746f60448201527f6b656e206f776e6572206f7220617070726f76656420666f7220616c6c000000606482015260840161048b565b61052c8383610969565b505050565b61053c335b826109d7565b6105585760405162461bcd60e51b815260040161048b90611d65565b61052c838383610a56565b600061056e8361074a565b82106105d05760405162461bcd60e51b815260206004820152602b60248201527f455243373231456e756d657261626c653a206f776e657220696e646578206f7560448201526a74206f6620626f756e647360a81b606482015260840161048b565b506001600160a01b03919091166000908152600660209081526040808320938352929052205490565b610601610bc7565b610609610c27565b565b61052c83838360405180602001604052806000815250610810565b61062f33610536565b61064b5760405162461bcd60e51b815260040161048b90611d65565b61065481610c79565b50565b600061066260085490565b82106106c55760405162461bcd60e51b815260206004820152602c60248201527f455243373231456e756d657261626c653a20676c6f62616c20696e646578206f60448201526b7574206f6620626f756e647360a01b606482015260840161048b565b600882815481106106d8576106d8611db2565b90600052602060002001549050919050565b6000818152600260205260408120546001600160a01b0316806103585760405162461bcd60e51b8152602060048201526018602482015277115490cdcc8c4e881a5b9d985b1a59081d1bdad95b88125160421b604482015260640161048b565b60006001600160a01b0382166107b45760405162461bcd60e51b815260206004820152602960248201527f4552433732313a2061646472657373207a65726f206973206e6f7420612076616044820152683634b21037bbb732b960b91b606482015260840161048b565b506001600160a01b031660009081526003602052604090205490565b6107d8610bc7565b6106096000610c82565b6107ea610bc7565b610609610cdc565b60606001805461036d90611d2b565b61080c338383610d19565b5050565b61081a33836109d7565b6108365760405162461bcd60e51b815260040161048b90611d65565b61084284848484610de7565b50505050565b606061035882610e1a565b61085b610bc7565b6108658383610f15565b61052c8282610f2f565b610877610bc7565b6001600160a01b0381166108dc5760405162461bcd60e51b815260206004820152602660248201527f4f776e61626c653a206e6577206f776e657220697320746865207a65726f206160448201526564647265737360d01b606482015260840161048b565b61065481610c82565b60006001600160e01b0319821663780e9d6360e01b1480610358575061035882610fc2565b6000818152600260205260409020546001600160a01b03166106545760405162461bcd60e51b8152602060048201526018602482015277115490cdcc8c4e881a5b9d985b1a59081d1bdad95b88125160421b604482015260640161048b565b600081815260046020526040902080546001600160a01b0319166001600160a01b038416908117909155819061099e826106ea565b6001600160a01b03167f8c5be1e5ebec7d5bd14f71427d1e84f3dd0314c0f7b2291e5b200ac8c7c3b92560405160405180910390a45050565b6000806109e3836106ea565b9050806001600160a01b0316846001600160a01b03161480610a2a57506001600160a01b0380821660009081526005602090815260408083209388168352929052205460ff165b80610a4e5750836001600160a01b0316610a43846103f0565b6001600160a01b0316145b949350505050565b826001600160a01b0316610a69826106ea565b6001600160a01b031614610a8f5760405162461bcd60e51b815260040161048b90611dc8565b6001600160a01b038216610af15760405162461bcd60e51b8152602060048201526024808201527f4552433732313a207472616e7366657220746f20746865207a65726f206164646044820152637265737360e01b606482015260840161048b565b610afe8383836001611012565b826001600160a01b0316610b11826106ea565b6001600160a01b031614610b375760405162461bcd60e51b815260040161048b90611dc8565b600081815260046020908152604080832080546001600160a01b03199081169091556001600160a01b0387811680865260038552838620805460001901905590871680865283862080546001019055868652600290945282852080549092168417909155905184937fddf252ad1be2c89b69c2b068fc378daa952ba7f163c4a11628f55a4df523b3ef91a4505050565b600b546001600160a01b036101009091041633146106095760405162461bcd60e51b815260206004820181905260248201527f4f776e61626c653a2063616c6c6572206973206e6f7420746865206f776e6572604482015260640161048b565b610c2f611026565b600b805460ff191690557f5db9ee0a495bf2e6ff9c91a7834c1ba4fdd244a5e8aa4e537bd38aeae4b073aa335b6040516001600160a01b03909116815260200160405180910390a1565b6106548161106f565b600b80546001600160a01b03838116610100818102610100600160a81b031985161790945560405193909204169182907f8be0079c531659141344cd1fd0a4f28419497f9722a3daafe3b4186f6b6457e090600090a35050565b610ce46110af565b600b805460ff191660011790557f62e78cea01bee320cd4e420270b5ea74000d11b0c9f74754ebdbfc544b05a258610c5c3390565b816001600160a01b0316836001600160a01b031603610d7a5760405162461bcd60e51b815260206004820152601960248201527f4552433732313a20617070726f766520746f2063616c6c657200000000000000604482015260640161048b565b6001600160a01b03838116600081815260056020908152604080832094871680845294825291829020805460ff191686151590811790915591519182527f17307eab39ab6107e8899845ad3d59bd9653f200f220920489ca2b5937696c31910160405180910390a3505050565b610df2848484610a56565b610dfe848484846110f5565b6108425760405162461bcd60e51b815260040161048b90611e0d565b6060610e258261090a565b6000828152600a602052604081208054610e3e90611d2b565b80601f0160208091040260200160405190810160405280929190818152602001828054610e6a90611d2b565b8015610eb75780601f10610e8c57610100808354040283529160200191610eb7565b820191906000526020600020905b815481529060010190602001808311610e9a57829003601f168201915b505050505090506000610ec86111f6565b90508051600003610eda575092915050565b815115610f0c578082604051602001610ef4929190611e5f565b60405160208183030381529060405292505050919050565b610a4e84611216565b61080c82826040518060200160405280600081525061127d565b6000828152600260205260409020546001600160a01b0316610faa5760405162461bcd60e51b815260206004820152602e60248201527f45524337323155524953746f726167653a2055524920736574206f66206e6f6e60448201526d32bc34b9ba32b73a103a37b5b2b760911b606482015260840161048b565b6000828152600a6020526040902061052c8282611edc565b60006001600160e01b031982166380ac58cd60e01b1480610ff357506001600160e01b03198216635b5e139f60e01b145b8061035857506301ffc9a760e01b6001600160e01b0319831614610358565b61101a6110af565b610842848484846112b0565b600b5460ff166106095760405162461bcd60e51b815260206004820152601460248201527314185d5cd8589b194e881b9bdd081c185d5cd95960621b604482015260640161048b565b611078816113f0565b6000818152600a60205260409020805461109190611d2b565b159050610654576000818152600a60205260408120610654916119af565b600b5460ff16156106095760405162461bcd60e51b815260206004820152601060248201526f14185d5cd8589b194e881c185d5cd95960821b604482015260640161048b565b60006001600160a01b0384163b156111eb57604051630a85bd0160e11b81526001600160a01b0385169063150b7a0290611139903390899088908890600401611f9c565b6020604051808303816000875af1925050508015611174575060408051601f3d908101601f1916820190925261117191810190611fd9565b60015b6111d1573d8080156111a2576040519150601f19603f3d011682016040523d82523d6000602084013e6111a7565b606091505b5080516000036111c95760405162461bcd60e51b815260040161048b90611e0d565b805181602001fd5b6001600160e01b031916630a85bd0160e11b149050610a4e565b506001949350505050565b606060405180606001604052806031815260200161204960319139905090565b60606112218261090a565b600061122b6111f6565b9050600081511161124b5760405180602001604052806000815250611276565b8061125584611493565b604051602001611266929190611e5f565b6040516020818303038152906040525b9392505050565b6112878383611526565b61129460008484846110f5565b61052c5760405162461bcd60e51b815260040161048b90611e0d565b6112bc848484846116bf565b600181111561132b5760405162461bcd60e51b815260206004820152603560248201527f455243373231456e756d657261626c653a20636f6e7365637574697665207472604482015274185b9cd9995c9cc81b9bdd081cdd5c1c1bdc9d1959605a1b606482015260840161048b565b816001600160a01b0385166113875761138281600880546000838152600960205260408120829055600182018355919091527ff3f7a9fe364faab93b216da50a3214154f22a0a2b415b23a84c8169e8b636ee30155565b6113aa565b836001600160a01b0316856001600160a01b0316146113aa576113aa8582611747565b6001600160a01b0384166113c6576113c1816117e4565b6113e9565b846001600160a01b0316846001600160a01b0316146113e9576113e98482611893565b5050505050565b60006113fb826106ea565b905061140b816000846001611012565b611414826106ea565b600083815260046020908152604080832080546001600160a01b03199081169091556001600160a01b0385168085526003845282852080546000190190558785526002909352818420805490911690555192935084927fddf252ad1be2c89b69c2b068fc378daa952ba7f163c4a11628f55a4df523b3ef908390a45050565b606060006114a0836118d7565b600101905060008167ffffffffffffffff8111156114c0576114c0611b85565b6040519080825280601f01601f1916602001820160405280156114ea576020820181803683370190505b5090508181016020015b600019016f181899199a1a9b1b9c1cb0b131b232b360811b600a86061a8153600a85049450846114f457509392505050565b6001600160a01b03821661157c5760405162461bcd60e51b815260206004820181905260248201527f4552433732313a206d696e7420746f20746865207a65726f2061646472657373604482015260640161048b565b6000818152600260205260409020546001600160a01b0316156115e15760405162461bcd60e51b815260206004820152601c60248201527f4552433732313a20746f6b656e20616c7265616479206d696e74656400000000604482015260640161048b565b6115ef600083836001611012565b6000818152600260205260409020546001600160a01b0316156116545760405162461bcd60e51b815260206004820152601c60248201527f4552433732313a20746f6b656e20616c7265616479206d696e74656400000000604482015260640161048b565b6001600160a01b038216600081815260036020908152604080832080546001019055848352600290915280822080546001600160a01b0319168417905551839291907fddf252ad1be2c89b69c2b068fc378daa952ba7f163c4a11628f55a4df523b3ef908290a45050565b6001811115610842576001600160a01b03841615611705576001600160a01b038416600090815260036020526040812080548392906116ff90849061200c565b90915550505b6001600160a01b03831615610842576001600160a01b0383166000908152600360205260408120805483929061173c90849061201f565b909155505050505050565b600060016117548461074a565b61175e919061200c565b6000838152600760205260409020549091508082146117b1576001600160a01b03841660009081526006602090815260408083208584528252808320548484528184208190558352600790915290208190555b5060009182526007602090815260408084208490556001600160a01b039094168352600681528383209183525290812055565b6008546000906117f69060019061200c565b6000838152600960205260408120546008805493945090928490811061181e5761181e611db2565b90600052602060002001549050806008838154811061183f5761183f611db2565b600091825260208083209091019290925582815260099091526040808220849055858252812055600880548061187757611877612032565b6001900381819060005260206000200160009055905550505050565b600061189e8361074a565b6001600160a01b039093166000908152600660209081526040808320868452825280832085905593825260079052919091209190915550565b60008072184f03e93ff9f4daa797ed6e38ed64bf6a1f0160401b83106119165772184f03e93ff9f4daa797ed6e38ed64bf6a1f0160401b830492506040015b6d04ee2d6d415b85acef81000000008310611942576d04ee2d6d415b85acef8100000000830492506020015b662386f26fc10000831061196057662386f26fc10000830492506010015b6305f5e1008310611978576305f5e100830492506008015b612710831061198c57612710830492506004015b6064831061199e576064830492506002015b600a83106103585760010192915050565b5080546119bb90611d2b565b6000825580601f106119cb575050565b601f01602090049060005260206000209081019061065491905b808211156119f957600081556001016119e5565b5090565b6001600160e01b03198116811461065457600080fd5b600060208284031215611a2557600080fd5b8135611276816119fd565b60005b83811015611a4b578181015183820152602001611a33565b50506000910152565b60008151808452611a6c816020860160208601611a30565b601f01601f19169290920160200192915050565b6020815260006112766020830184611a54565b600060208284031215611aa557600080fd5b5035919050565b80356001600160a01b0381168114611ac357600080fd5b919050565b60008060408385031215611adb57600080fd5b611ae483611aac565b946020939093013593505050565b600080600060608486031215611b0757600080fd5b611b1084611aac565b9250611b1e60208501611aac565b9150604084013590509250925092565b600060208284031215611b4057600080fd5b61127682611aac565b60008060408385031215611b5c57600080fd5b611b6583611aac565b915060208301358015158114611b7a57600080fd5b809150509250929050565b634e487b7160e01b600052604160045260246000fd5b600067ffffffffffffffff80841115611bb657611bb6611b85565b604051601f8501601f19908116603f01168101908282118183101715611bde57611bde611b85565b81604052809350858152868686011115611bf757600080fd5b858560208301376000602087830101525050509392505050565b60008060008060808587031215611c2757600080fd5b611c3085611aac565b9350611c3e60208601611aac565b925060408501359150606085013567ffffffffffffffff811115611c6157600080fd5b8501601f81018713611c7257600080fd5b611c8187823560208401611b9b565b91505092959194509250565b600080600060608486031215611ca257600080fd5b611cab84611aac565b925060208401359150604084013567ffffffffffffffff811115611cce57600080fd5b8401601f81018613611cdf57600080fd5b611cee86823560208401611b9b565b9150509250925092565b60008060408385031215611d0b57600080fd5b611d1483611aac565b9150611d2260208401611aac565b90509250929050565b600181811c90821680611d3f57607f821691505b602082108103611d5f57634e487b7160e01b600052602260045260246000fd5b50919050565b6020808252602d908201527f4552433732313a2063616c6c6572206973206e6f7420746f6b656e206f776e6560408201526c1c881bdc88185c1c1c9bdd9959609a1b606082015260800190565b634e487b7160e01b600052603260045260246000fd5b60208082526025908201527f4552433732313a207472616e736665722066726f6d20696e636f72726563742060408201526437bbb732b960d91b606082015260800190565b60208082526032908201527f4552433732313a207472616e7366657220746f206e6f6e20455243373231526560408201527131b2b4bb32b91034b6b83632b6b2b73a32b960711b606082015260800190565b60008351611e71818460208801611a30565b835190830190611e85818360208801611a30565b01949350505050565b601f82111561052c57600081815260208120601f850160051c81016020861015611eb55750805b601f850160051c820191505b81811015611ed457828155600101611ec1565b505050505050565b815167ffffffffffffffff811115611ef657611ef6611b85565b611f0a81611f048454611d2b565b84611e8e565b602080601f831160018114611f3f5760008415611f275750858301515b600019600386901b1c1916600185901b178555611ed4565b600085815260208120601f198616915b82811015611f6e57888601518255948401946001909101908401611f4f565b5085821015611f8c5787850151600019600388901b60f8161c191681555b5050505050600190811b01905550565b6001600160a01b0385811682528416602082015260408101839052608060608201819052600090611fcf90830184611a54565b9695505050505050565b600060208284031215611feb57600080fd5b8151611276816119fd565b634e487b7160e01b600052601160045260246000fd5b8181038181111561035857610358611ff6565b8082018082111561035857610358611ff6565b634e487b7160e01b600052603160045260246000fdfe68747470733a2f2f6a656666707265737465732e6769746875622e696f2f746f6b656e7366656465726169732f6e66742fa2646970667358221220b1cb1617029654c41d84f8aa341b28b2e70e767254a0341147218ebe527b9fca64736f6c63430008110033",
    "linkReferences": {}
  },
  "methodIdentifiers": {
    "approve(address,uint256)": "095ea7b3",
    "balanceOf(address)": "70a08231",
    "burn(uint256)": "42966c68",
    "getApproved(uint256)": "081812fc",
    "isApprovedForAll(address,address)": "e985e9c5",
    "name()": "06fdde03",
    "owner()": "8da5cb5b",
    "ownerOf(uint256)": "6352211e",
    "pause()": "8456cb59",
    "paused()": "5c975abb",
    "renounceOwnership()": "715018a6",
    "safeMint(address,uint256,string)": "cd279c7c",
    "safeTransferFrom(address,address,uint256)": "42842e0e",
    "safeTransferFrom(address,address,uint256,bytes)": "b88d4fde",
    "setApprovalForAll(address,bool)": "a22cb465",
    "supportsInterface(bytes4)": "01ffc9a7",
    "symbol()": "95d89b41",
    "tokenByIndex(uint256)": "4f6ccce7",
    "tokenOfOwnerByIndex(address,uint256)": "2f745c59",
    "tokenURI(uint256)": "c87b56dd",
    "totalSupply()": "18160ddd",
    "transferFrom(address,address,uint256)": "23b872dd",
    "transferOwnership(address)": "f2fde38b",
    "unpause()": "3f4ba83a"
  },
  "id": 16
}